:1000000015C1000044C1000042C1000040C1000011
:100010003EC100003CC100003AC1000038C10000F0
:1000200036C1000034C1000032C1000030C1000000
:100030002EC100002CC100002AC1000028C1000010
:1000400026C1000024C1000022C1000020C1000020
:100050001EC100001CC100001AC100000C94C6267D
:1000600016C100000C944E1A0C94251A10C1000001
:100070000EC100000CC100000AC1000008C1000050
:1000800006C1000004C1000002C1000000C1000060
:100090000C94EF190C94C619FAC000000C94D61BEE
:1000A000F6C00000F4C00000F2C00000F0C0000084
:1000B000EEC00000ECC00000EAC00000E8C0000094
:1000C000E6C00000E4C00000E2C00000E0C00000A4
:1000D000DEC00000DCC00000DAC00000D8C00000B4
:1000E000D6C00000F510F810E710EB10F1102F113A
:1000F000FC10001106110A110E11141118111C1117
:100100002F11221126112A1100002100240027009E
:100110002A002D0030003300010100000401070116
:100120000A0100002200250028002B002E003100CB
:10013000340002010000050108010B01000020004D
:100140002300260029002C002F00320000010000AF
:10015000030106010901050505050705080808084A
:10016000020202020A0A080804040404010101014F
:10017000010101010303030303030303040707074A
:100180000C0C0C0C0C0C0C0C0202020206060606EF
:10019000060606060B0B0B0B0B0B0B0B01021020BC
:1001A00020080810204010204080020102010804AD
:1001B0000201010204081020408080402010080441
:1001C000020180040201804020100804020108049A
:1001D00002010102040810204080010204081020DE
:1001E000408000000A0B02090C0D0E0807030401F1
:1001F00000000000000000000000000000000000FF
:1002000000000000000000000000000000001211CB
:1002100010000000000000000000000000000000CE
:10022000000000000000000034371C3711241FBEFE
:10023000CFEFD1E2DEBFCDBF00E00CBF29E0A0E0F0
:10024000B7E001C01D92A536B207E1F717E0A0E0C4
:10025000B2E0EEE9F9E700E00BBF02C007900D92B3
:10026000A030B107D9F711E0C5E1D1E000E006C048
:1002700021970109802FFE010E94983AC431D107CD
:1002800080E00807A9F70E9410270C94BE3CB8CE66
:100290007F928F929F92AF92BF92CF92DF92EF9216
:1002A000FF920F931F93CF93DF93CDB7DEB7E697FF
:1002B0000FB6F894DEBF0FBECDBF68EB76E0CE017F
:1002C0008B960E944B1964EF71E0CE018B960E94D1
:1002D000311868EB76E0CE01C1960E944B198091EF
:1002E000010790910207A0910307B09104070197BD
:1002F000A105B10509F445C068EB76E0CE018B9607
:100300000E94141962E175E084E399E00E941419D7
:100310000E94D20A61E08CE10E94321261E083E225
:100320000E94321264E379E0CE0101960E944319E3
:10033000CE0101960E94FB12CE0101960E943E1949
:1003400061E08AE00E94AA2567E275E08BE199E00E
:100350000E94C51962E08AE00E94AA256FE275E05A
:100360008BE199E00E94C51920E1C22E27E2D22E2E
:10037000E12CF12C38EE832E33E0932EA12CB12CFE
:100380005FC08BE199E00E948C1A60E080E00E94DF
:10039000AA2561E080E00E94AA2566E375E08BE172
:1003A00099E00E94C51962E080E00E94AA2568EDEC
:1003B00073E08BE199E00E94C51963E080E00E9440
:1003C000AA256DEE73E08BE199E00E94C51985EDD9
:1003D00097E00E941F16892B09F0EAC02AC126E87F
:1003E00032E044E852E062E872E08091800290914D
:1003F00081020E94E40A782E62E370E080E090E0DF
:100400000E94C11271101FC00150110941F788EEFE
:10041000C81A83E0D80AE108F108C701B601A501AE
:1004200094010E947C3A672B682B692B21F4C70149
:10043000B6010E940524C114D104E104F10419F0AD
:1004400004E110E0CCCF6BE475E084E399E00E9416
:10045000141961E080E20E94321264E379E0CE0177
:1004600001960E944319CE0101960E94FB12CE0113
:1004700001960E943E1961E08AE00E94AA2567E287
:1004800075E08BE199E00E94C51962E08AE00E9464
:10049000AA256FE275E08BE199E00E94C51968E832
:1004A00073E180E090E00E94C11266E073E08CE4AA
:1004B00099E00E94D8178823D1F10E941E1E61E0A6
:1004C00088E20E94321261E08CE10E94321261E007
:1004D00086E20E94321261E082E20E94321261E002
:1004E00083E20E9432124091660750916707609143
:1004F0006807709169078091050790910607A091A0
:100500000707B091080784179507A607B7071CF0DF
:100510000E941E1EE8CF60E088E20E94321260E076
:1005200086E20E94321260E082E20E94321261E0B2
:100530008DE10E94321264E670E080E090E00E945B
:10054000C11264E379E0CE0101960E944319CE0105
:1005500001960E94FB12CE0101960E943E1964E6AC
:1005600070E080E090E00E94C1121092110710929A
:10057000120710921307109214070E943C232EE4D6
:1005800032E04CE452E06AE472E0809148029091DB
:1005900049020E94E40A182F111169C06AEB74E045
:1005A0008AE399E00E94D817882309F424C15FC028
:1005B00085ED97E00E94FD15182F682FCE01C1969A
:1005C0000E94E2181A3209F002CF63E08EE00E9426
:1005D000AA2562EB76E08BE199E00E94C51963E001
:1005E0008EE00E94AA25BE016F5C7F4F8BE199E0EF
:1005F0000E94A2192DA93EA92150310940E050E0E6
:10060000BE016F5C7F4FCE0101960E945F19BE0153
:100610006F5F7F4FCE018B960E94F717CE01019638
:100620000E943E1968EB76E0CE01C1960E94141933
:10063000CECE65E973E086E499E00E94D81788235E
:1006400069F026E832E044E852E062E872E0809126
:10065000800290918102B8D781114ECE62E074E0A1
:10066000CE018B960E94D817811146CEB0CE68EB92
:1006700076E08AE399E00E94141964E379E0CE0100
:1006800001960E944319CE0101960E94FB12CE01F1
:1006900001960E943E196BEC75E084E399E00E949C
:1006A000141960E08DE10E94321260E080E20E9445
:1006B000321261E081E20E94321261E082E20E9425
:1006C000321268EE73E080E090E00E94C11264E3B1
:1006D00079E0CE0101960E944319CE0101960E9455
:1006E000FB12CE0101960E943E1961E08AE00E9451
:1006F000AA256AE775E08BE199E00E94C51962E0DE
:100700008AE00E94AA256FE275E08BE199E00E94E1
:10071000C51980E6C82E8AEED82EE12CF12C98EE71
:10072000892E93E0992EA12CB12C04E110E026E84B
:1007300032E044E852E062E872E0809180029091F9
:10074000810242D7782E62E370E080E090E00E9460
:10075000C112772009F44AC060E675E084E399E0AD
:100760000E94141960E081E20E94321260E082E28D
:100770000E94321260E083E20E94321264E379E068
:10078000CE0101960E944319CE0101960E94FB12F0
:10079000CE0101960E943E1961E08AE00E94AA25DE
:1007A0006AE775E08BE199E00E94C51962E08AE092
:1007B0000E94AA256FE275E08BE199E00E94C519BD
:1007C00068E873E180E090E00E94C11260E08CE193
:1007D0000E9432122EE832E04CE852E06AE872E001
:1007E0008091880290918902EFD6D2C101501109FF
:1007F00009F09DCF2DC167EB76E08AE399E00E9476
:10080000141985ED97E00E941F16892B09F444C046
:10081000809198028A3209F43FC085ED97E00E94EA
:10082000FD15182F682F80E499E00E94E2181A3213
:1008300041F763E08EE00E94AA2562EB76E08BE14F
:1008400099E00E94C51963E08EE00E94AA254091BC
:100850004409509145099A012150310946505109E6
:1008600060E479E0CE0101960E945F19BE016F5FDE
:100870007F4F8AE399E00E94F717CE0101960E940C
:100880003E196AE379E08BE199E00E94A21968EBD6
:1008900076E080E499E0B3CF2EE432E04CE452E01D
:1008A0006AE472E080914802909149028DD6182F37
:1008B00020EA32E04EE952E06CE972E080919A025F
:1008C00090919B0281D6811108C06BE373E08AE3AB
:1008D00099E00E94D8178823C1F16BE373E08AE3A3
:1008E00099E00E94D817882371F081E090E0209170
:1008F0009E0230919F02232B11F080E090E09093B4
:100900009F0280939E026AE575E0CE0101960E94E7
:100910004B19CE0101960E94C414CE0101960E948B
:100920003E1961E08AE00E94AA2567E275E08BE14A
:1009300099E00E94C51962E08AE00E94AA256FE250
:1009400075E08BE199E00E94C51969E474E08AE3DF
:1009500099E00E94D817882309F41ECE68EB76E050
:10096000CE0101960E944B19409105075091060750
:100970006091070770910807CE0149960E947D2576
:100980004091090750910A0760910B0770910C077D
:10099000CE0143960E947D2540910D0750910E0790
:1009A00060910F0770911007CE010D960E947D2572
:1009B0006FE474E0CE0107960E944B19BE01635F9D
:1009C0007F4FCE0107960E94D11865E676E00E941F
:1009D000BA18BE016D5E7F4F0E94D11865E676E0C1
:1009E0000E94BA18BE01675E7F4F0E94D11865E66B
:1009F00076E00E94BA186CE479E00E94D11865E6AE
:100A000076E00E94BA1866E479E00E94D118BC0131
:100A1000CE0101960E942919CE0107960E943E1927
:100A2000CE010D960E943E19CE0143960E943E19BA
:100A3000CE0149960E943E19BE016F5F7F4F85ED42
:100A400097E00E94A219CE0101960E943E19A4CD02
:100A500088EEC81A83E0D80AE108F108C701B60198
:100A6000A50194010E947C3A672B682B692B21F425
:100A7000C701B6010E940524C114D104E104F104A8
:100A800009F053CE69CE809198028A3209F447C0AA
:100A900085ED97E00E94FD15F82E682F80E499E01F
:100AA0000E94E2188AE2F81233C063E08EE00E94EE
:100AB000AA2562EB76E08BE199E00E94C51963E01C
:100AC0008EE00E94AA2560E479E08BE199E00E9423
:100AD000A21920914409309145092150310940E083
:100AE00050E060E479E0CE0101960E945F19BE01FA
:100AF0006F5F7F4F8AE399E00E94F717CE0101965E
:100B00000E943E1968EB76E080E499E00E94141997
:100B100085ED97E00E941F16892B09F0B4CF65EA96
:100B200073E08AE399E00E94D817882371F081E08E
:100B300090E020918C0230918D02232B11F080E007
:100B400090E090938D0280938C022EE832E04CE886
:100B500052E06AE872E0809188029091890234D56F
:100B6000F82E62E370E080E090E00E94C112F11084
:100B700093C065EA73E08AE399E00E94D81788235E
:100B800009F436C465EA73E08AE399E00E94D81755
:100B9000811182C062E074E08AE399E00E94D81774
:100BA000882309F42EC278C0809198028A3209F411
:100BB00048C085ED97E00E94FD15F82E682F80E46F
:100BC00099E00E94E2188AE2F81234C063E08EE0F5
:100BD0000E94AA2562EB76E08BE199E00E94C5199C
:100BE00063E08EE00E94AA25409144095091450996
:100BF0009A01215031094650510960E479E0CE0153
:100C000001960E945F19BE016F5F7F4F8AE399E0F2
:100C10000E94F717CE0101960E943E1960E479E028
:100C20008BE199E00E94A21968EB76E080E499E0FC
:100C30000E94141985ED97E00E941F16892B09F078
:100C4000B3CF65EA73E08AE399E00E94D81788235E
:100C500071F081E090E020918C0230918D02232B85
:100C600011F080E090E090938D0280938C022EE84A
:100C700032E04CE852E06AE872E08091880290919C
:100C80008902A2D4F82E62E370E080E090E00E9436
:100C9000C112FF2009F4D3C168EB76E08AE399E042
:100CA0000E94141968E875E084E399E00E94141921
:100CB00068EB76E0CE0185960E944B1964EF71E0F7
:100CC000CE0185960E94311868EB76E0CE014F96F2
:100CD0000E944B198091010790910207A091030790
:100CE000B09104070197A105B10509F442C068EB72
:100CF00076E0CE0185960E94141954D461E084E216
:100D00000E94321261E081E20E94321261E082E2CE
:100D10000E94321264E379E0CE0101960E944319E9
:100D2000CE0101960E94FB12CE0101960E943E194F
:100D300061E08AE00E94AA2566EA75E08BE199E00D
:100D40000E94C51962E08AE00E94AA2565E274E06B
:100D50008BE199E00E94C51926E832E044E852E0B0
:100D600062E872E080918002909181022DD4182F68
:100D700039C18BE199E00E948C1A60E080E00E940A
:100D8000AA2561EB73E08BE199E00E94C51961E04F
:100D900080E00E94AA2561EB75E08BE199E00E945A
:100DA000C51962E080E00E94AA2568ED73E08BE13E
:100DB00099E00E94C51963E080E00E94AA256DEECB
:100DC00073E08BE199E00E94C51985ED97E00E94E0
:100DD0001F16892B09F00FC24FC2809198028A32E8
:100DE00009F447C085ED97E00E94FD15182F682F84
:100DF00080E499E00E94E2181A32A1F563E08EE0E7
:100E00000E94AA2562EB76E08BE199E00E94C51969
:100E100063E08EE00E94AA25409144095091450963
:100E20009A01215031094650510960E479E0CE0120
:100E300001960E945F19BE016F5F7F4F8AE399E0C0
:100E40000E94F717CE0101960E943E196AE379E0ED
:100E50008BE199E00E94A21968EB76E080E499E0CA
:100E60000E94141985ED97E00E941F16892B09F046
:100E7000B4CF62E074E08AE399E00E94D817882337
:100E800071F081E090E02091840230918502232B63
:100E900011F080E090E0909385028093840226E830
:100EA00032E044E852E062E872E080918002909182
:100EB00081028AD3182F20EA32E04EE952E06CE931
:100EC00072E080919A0290919B027ED381113CC284
:100ED0006BE373E08AE399E00E94D817811134C272
:100EE00069E474E08AE399E00E94D817882309F442
:100EF00079C068EB76E0CE0149960E944B1940918B
:100F00000507509106076091070770910807CE0109
:100F100001960E947D254091090750910A07609132
:100F20000B0770910C07CE0107960E947D2540911A
:100F30000D0750910E0760910F0770911007CE01B9
:100F40000D960E947D256FE474E0CE0143960E94C9
:100F50004B19BE01635F7F4FCE0143960E94D118AB
:100F600065E676E00E94BA18BE01695F7F4F0E9475
:100F7000D11865E676E00E94BA18BE016F5F7F4F18
:100F80000E94D11865E676E00E94BA186CE479E018
:100F90000E94D11865E676E00E94BA1866E479E00E
:100FA0000E94D118BC01CE0149960E942919CE0198
:100FB00043960E943E19CE010D960E943E19CE0125
:100FC00007960E943E19CE0101960E943E19BE016D
:100FD000675E7F4F85ED97E00E94A219CE0149968A
:100FE0000E943E19111166C162E074E08AE399E043
:100FF0000E94D81781115EC167EB76E08AE399E021
:101000002FCF67EB76E08AE399E00E9414192EE86F
:1010100032E04CE852E06AE872E0809188029091F8
:101020008902D2D263E08AE00E94AA2562EE75E0CE
:101030008BE199E00E94C5190AE010E0FBCD65EA5A
:1010400073E08AE399E00E94D8178111B6C120EAC3
:1010500032E04EE952E06CE972E080919A029091A0
:101060009B02B2D2811108C06BE373E08AE399E07E
:101070000E94D8178823C1F16BE373E08AE399E0FB
:101080000E94D817882371F081E090E020919E02A1
:1010900030919F02232B11F080E090E090939F020B
:1010A00080939E0262E875E0CE0101960E944B1982
:1010B000CE0101960E94C414CE0101960E943E19F1
:1010C00061E08AE00E94AA256AE775E08BE199E079
:1010D0000E94C51962E08AE00E94AA256FE275E0CD
:1010E0008BE199E00E94C51969E474E08AE399E014
:1010F0000E94D817882309F479C068EB76E0CE0106
:1011000049960E944B19409105075091060760913E
:10111000070770910807CE0101960E947D25409136
:10112000090750910A0760910B0770910C07CE01D7
:1011300007960E947D2540910D0750910E07609102
:101140000F0770911007CE010D960E947D256FE468
:1011500074E0CE0143960E944B19BE01635F7F4F3E
:10116000CE0143960E94D11865E676E00E94BA1837
:10117000BE01695F7F4F0E94D11865E676E00E944C
:10118000BA18BE016F5F7F4F0E94D11865E676E006
:101190000E94BA186CE479E00E94D11865E676E006
:1011A0000E94BA1866E479E00E94D118BC01CE0111
:1011B00049960E942919CE0143960E943E19CE01FC
:1011C0000D960E943E19CE0107960E943E19CE014F
:1011D00001960E943E19BE01675E7F4F85ED97E044
:1011E0000E94A219CE0149960E943E190150110990
:1011F00009F020CDE2C085ED97E00E94FD15182F83
:10120000682FCE014F960E94E2181A3209F0DDCD08
:1012100063E08EE00E94AA2562EB76E08BE199E024
:101220000E94C51963E08EE00E94AA25BE01615E9E
:101230007F4F8BE199E00E94A2192BA13CA1215084
:10124000310940E050E0BE01615E7F4FCE01019662
:101250000E945F19BE016F5F7F4FCE0185960E948D
:10126000F717CE0101960E943E1968EB76E0CE0199
:101270004F960E941419A9CD65E973E086E499E0C0
:101280000E94D817882369F026E832E044E852E04B
:1012900062E872E0809180029091810295D1811183
:1012A00026CD62E074E0CE0185960E94D8178111A8
:1012B0001ECD8BCD68EB76E08AE399E00E9414198D
:1012C00060E084E20E94321260E081E20E94321209
:1012D00060E082E20E94321266E574E084E399E005
:1012E0000E94141964E379E0CE0101960E9443192B
:1012F000CE0101960E94FB12CE0101960E943E197A
:10130000CE014F960E943E19CE0185960E943E194D
:10131000CE01C1960E943E19CE018B960E943E19C5
:10132000E6960FB6F894DEBF0FBECDBFDF91CF912A
:101330001F910F91FF90EF90DF90CF90BF90AF90F3
:101340009F908F907F9008956BE373E08AE399E01C
:101350000E94D817882371F081E090E020919E02CE
:1013600030919F02232B11F080E090E090939F0238
:1013700080939E0265EC75E0CE0101960E944B19A8
:10138000CE0101960E94C414CE0101960E943E191E
:1013900061E08AE00E94AA2566EA75E08BE199E0A7
:1013A0000E94C51962E08AE00E94AA2565E274E005
:1013B0008BE199E00E94C51993CD65EA73E08AE359
:1013C00099E00E94D817811167CC68EB76E08AE338
:1013D00099E00E94141963E08AE00E94AA256EEA4F
:1013E00076E08BE199E00E94C5190AE010E090CB0D
:1013F00020EA32E04EE952E06CE972E080919A0214
:1014000090919B02E1D0811108C06BE373E08AE305
:1014100099E00E94D8178823C1F16BE373E08AE357
:1014200099E00E94D817882371F081E090E0209124
:101430009E0230919F02232B11F080E090E0909368
:101440009F0280939E0262E875E0CE0101960E94A1
:101450004B19CE0101960E94C414CE0101960E9440
:101460003E1961E08AE00E94AA256AE775E08BE1F7
:1014700099E00E94C51962E08AE00E94AA256FE205
:1014800075E08BE199E00E94C51969E474E08AE394
:1014900099E00E94D817882309F479C068EB76E0B8
:1014A000CE0149960E944B194091050750910607BD
:1014B0006091070770910807CE0101960E947D2573
:1014C0004091090750910A0760910B0770910C0732
:1014D000CE0107960E947D2540910D0750910E0781
:1014E00060910F0770911007CE010D960E947D2527
:1014F0006FE474E0CE0143960E944B19BE01635F16
:101500007F4FCE0143960E94D11865E676E00E9497
:10151000BA18BE01695F7F4F0E94D11865E676E078
:101520000E94BA18BE016F5F7F4F0E94D11865E616
:1015300076E00E94BA186CE479E00E94D11865E662
:1015400076E00E94BA1866E479E00E94D118BC01E6
:10155000CE0149960E942919CE0143960E943E1958
:10156000CE010D960E943E19CE0107960E943E19AB
:10157000CE0101960E943E19BE01675E7F4F85ED48
:1015800097E00E94A219CE0149960E943E1967EB8E
:1015900076E08AE399E00E9414190150110909F0DC
:1015A000B7CAF0CA60E080E25DD760E081E25AD756
:1015B00060E082E257D760E083E254D760E084E2E3
:1015C00051D760E086E24EC7EF92FF920F931F93D0
:1015D000CF93DF93EB018A0179011CD728813981F0
:1015E00082179307F9F0009731F4F7011182108206
:1015F0001982188217C081309105A1F4F7019183F7
:10160000808381E090E0F80120813181232B11F06B
:1016100080E090E0F8019183808381E090E09983FD
:10162000888301C080E0DF91CF911F910F91FF90DF
:10163000EF9008958BE199E00E948C1A62E08BE1B3
:1016400099E00E94841A8BE39FE10197F1F765E925
:1016500073E086E499E00E94D81760E0882329F0BF
:1016600083E10E94AA2566E004C083E10E94AA25C6
:1016700065E08BE199E00C9413174F925F926F92A3
:101680007F928F929F92AF92BF92CF92DF92EF9212
:10169000FF921F93CF93DF93CDB7DEB7AA970FB614
:1016A000F894DEBF0FBECDBF6DEE75E084E399E028
:1016B0000E94141968EB76E0CE014F960E944B19F8
:1016C00064EF71E0CE014F960E94311868EB76E02E
:1016D000CE0185960E944B198091010790910207D7
:1016E000A0910307B09104070197A105B10509F482
:1016F00053C068EB76E0CE014F960E94141952DF7A
:1017000061E084E2AFD661E081E2ACD661E082E2E2
:10171000A9D664E379E0CE0101960E944319CE0177
:10172000019669D7CE0101960E943E1961E08AE0D8
:101730000E94AA256CE076E08BE199E00E94C51931
:1017400062E08AE00E94AA2565E274E08BE199E0FC
:101750000E94C51960910D0770910E0780910F07C7
:10176000909110070E947B3820E030E040E752E47F
:101770000E94DA3820E030E04AE754E40E94DA3888
:101780000E94253A6B017C01412C512C320143947B
:1017900088248394912C31C18BE199E00E948C1AAA
:1017A00060E080E00E94AA2567E176E08BE199E0A5
:1017B0000E94C51961E080E00E94AA2566E375E0F9
:1017C0008BE199E00E94C51962E080E00E94AA25A1
:1017D00068ED73E08BE199E00E94C51963E080E059
:1017E0000E94AA256DEE73E08BE199E00E94C51975
:1017F00085ED97E00E941F16892B09F0A5C1E5C170
:10180000809198028A3291F185ED97E00E94FD1552
:10181000182F682F80E499E00E94E2181A3201F52F
:1018200040914409509145099A012150310946508F
:10183000510960E479E0CE0101960E945F19BE0172
:101840006F5F7F4F8AE399E00E94F717CE01019600
:101850000E943E1968EB76E080E499E00E9414193A
:1018600085ED97E00E941F16892B51F620EA32E0A1
:101870004EE952E06CE972E080919A0290919B02ED
:10188000A3DE8111C5C16BE373E08AE399E00E9496
:10189000D8178111BDC169E474E08AE399E00E9420
:1018A000D817882309F479C068EB76E0CE01019659
:1018B0000E944B1940910507509106076091070758
:1018C00070910807CE0149960E947D254091090735
:1018D00050910A0760910B0770910C07CE01439657
:1018E0000E947D2540910D0750910E0760910F07D2
:1018F00070911007CE010D960E947D256FE474E073
:10190000CE0107960E944B19BE01635F7F4FCE0147
:1019100007960E94D11865E676E00E94BA18BE01CB
:101920006D5E7F4F0E94D11865E676E00E94BA187E
:10193000BE01675E7F4F0E94D11865E676E00E9487
:10194000BA186CE479E00E94D11865E676E00E944E
:10195000BA1866E479E00E94D118BC01CE01019664
:101960000E942919CE0107960E943E19CE010D96BC
:101970000E943E19CE0143960E943E19CE0149961F
:101980000E943E19BE016F5F7F4F85ED97E00E9478
:10199000A219CE0101960E943E1981E0A81AB10851
:1019A00009F046C062E074E08AE399E00E94D8172B
:1019B00081118BC06AEB74E08AE399E00E94D8172A
:1019C000811183C088EEC81A83E0D80AE108F108C3
:1019D000C701B60128EE33E040E050E00E947C3AB7
:1019E000672B682B692B21F4C701B6010E940524DF
:1019F0008FEF481A580A680A780A20910D0730912B
:101A00000E0740910F0750911007A0E6BAEE0E9412
:101A1000A43928EE33E040E050E00E947C3A2415DF
:101A20003505460557050CF450C084E1A82EB12CAD
:101A30002EE432E04CE452E06AE472E08091480225
:101A400090914902C1DD182F81110CC026E832E0C7
:101A500044E852E062E872E0809180029091810255
:101A6000B3DD182F62E370E080E090E08AD51111B9
:101A700011C062E074E08AE399E00E94D8178111F6
:101A800009C06AEB74E08AE399E00E94D8178823C2
:101A900009F4B9C062E074E08AE399E00E94D817C3
:101AA000882321F090928502809284026AEB74E090
:101AB0008AE399E00E94D817882321F090924D0282
:101AC00080924C02112309F46DCF60E084E2CAD405
:101AD00060E081E2C7D460E082E2C4D466E574E0ED
:101AE00084E399E00E94141964E379E0CE01019641
:101AF0000E944319CE0101967ED5CE0101960E9427
:101B00003E1964EF71E080E090E03BD5CE01859610
:101B10000E943E19CE014F960E943E19AA960FB61A
:101B2000F894DEBF0FBECDBFDF91CF911F91FF9024
:101B3000EF90DF90CF90BF90AF909F908F907F906D
:101B40006F905F904F90089585ED97E00E94FD158E
:101B5000182F682FCE0185960E94E2181A3209F0DC
:101B600047CE63E08EE00E94AA2562EB76E08BE12F
:101B700099E00E94C51963E08EE00E94AA25BE018B
:101B80006B5D7F4F8BE199E00E94A21929A53AA5D0
:101B90002150310940E050E0BE016B5D7F4FCE0126
:101BA00001960E945F19BE016F5F7F4FCE014F9675
:101BB0000E94F717CE0101960E943E1968EB76E06D
:101BC000CE0185960E94141913CE65E973E086E470
:101BD00099E00E94D817882369F026E832E044E8AB
:101BE00052E062E872E08091800290918102ECDC28
:101BF00081117FCD62E074E0CE014F960E94D8172C
:101C0000811177CDF5CD68EB76E08AE399E026CEB9
:101C10006BE373E08AE399E00E94D817882371F0A0
:101C200081E090E020919E0230919F02232B11F0E1
:101C300080E090E090939F0280939E0265EC75E0B7
:101C4000CE0101960E944B19CE0101969DD6CE0180
:101C500001960E943E1961E08AE00E94AA256CE08C
:101C600076E08BE199E00E94C51962E08AE00E946B
:101C7000AA2565E274E08BE199E00E94C5190BCEBC
:101C8000BF92CF92DF92EF92FF920F931F93CF9369
:101C9000DF93CDB7DEB7AA970FB6F894DEBF0FBEBD
:101CA000CDBF68EB76E0CE014F960E944B1964EFF2
:101CB00071E0CE014F960E94311868EB76E0CE01BC
:101CC00085960E944B196CE276E084E399E00E94CD
:101CD00014198091010790910207A0910307B09118
:101CE00004070197A105B105A9F168EB76E0CE01E3
:101CF0004F960E94141956DC61E084E2B3D361E090
:101D000081E2B0D361E082E2ADD364E379E0CE0159
:101D100001960E944319CE0101966DD4CE01019621
:101D20000E943E1961E08AE00E94AA256CE076E0FC
:101D30008BE199E00E94C51962E08AE00E94AA2521
:101D400065E274E08BE199E00E94C519C12CD12CA9
:101D50007601A6C08BE199E00E948C1A60E080E0D9
:101D60000E94AA2561EB73E08BE199E00E94C519FE
:101D700061E080E00E94AA2561EB75E08BE199E0CB
:101D80000E94C51962E080E00E94AA2568ED73E018
:101D90008BE199E00E94C51963E080E00E94AA25CA
:101DA0006DEE73E08BE199E00E94C51985ED97E037
:101DB00046D7892B09F077C0B6C085ED97E01DD7CF
:101DC000B82E682FCE0185960E94E2188AE2B812DA
:101DD00033C063E08EE00E94AA2562EB76E08BE1DF
:101DE00099E00E94C51963E08EE00E94AA25BE0119
:101DF0006B5D7F4F8BE199E00E94A21929A53AA55E
:101E00002150310940E050E0BE016B5D7F4FCE01B3
:101E100001960E945F19BE016F5F7F4FCE014F9602
:101E20000E94F717CE0101960E943E1968EB76E0FA
:101E3000CE0185960E94141985ED97E000D7892B75
:101E400009F0BBCF26E832E044E852E062E872E0F5
:101E50008091800290918102B7DBB82E62E370E03E
:101E600080E090E08ED3B11054C162E074E0CE0106
:101E70004F960E94D817882309F473C062E074E07B
:101E8000CE014F960E94D817811143C188EEC80E2B
:101E900083E0D81EE11CF11CC701B6010E94052495
:101EA00004E110E0C9CF85ED97E0A7D6182F682F81
:101EB000CE0185960E94E2181A3209F077CF63E0CE
:101EC0008EE00E94AA2562EB76E08BE199E00E9409
:101ED000C51963E08EE00E94AA25BE016B5D7F4FAD
:101EE0008BE199E00E94A21929A53AA52150310958
:101EF00040E050E0BE016B5D7F4FCE0101960E9435
:101F00005F19BE016F5F7F4FCE014F960E94F7179A
:101F1000CE0101960E943E1968EB76E0CE018596CF
:101F20000E94141943CF65E973E086E499E00E94AA
:101F3000D817882369F026E832E044E852E062E8E6
:101F400072E080918002909181023EDB8111CDCEC2
:101F500062E074E0CE014F960E94D8178111C5CE81
:101F600025CF20EA32E04EE952E06CE972E0809140
:101F70009A0290919B0228DB811108C06BE373E009
:101F8000CE014F960E94D8178823B9F16BE373E016
:101F9000CE014F960E94D817882371F081E090E01F
:101FA00020919E0230919F02232B11F080E090E05F
:101FB00090939F0280939E0265EC75E0CE0101969E
:101FC0000E944B19CE010196DFD4CE0101960E94EA
:101FD0003E1961E08AE00E94AA256CE076E08BE180
:101FE00099E00E94C51962E08AE00E94AA2565E294
:101FF00074E08BE199E00E94C51969E474E0CE01B8
:102000004F96D6D7882309F479C068EB76E0CE01E5
:1020100001960E944B194091050750910607609167
:10202000070770910807CE0149960E947D254091CF
:10203000090750910A0760910B0770910C07CE01B8
:1020400043960E947D2540910D0750910E076091A7
:102050000F0770911007CE010D960E947D256FE449
:1020600074E0CE0107960E944B19BE01635F7F4F5B
:10207000CE0107960E94D11865E676E00E94BA1854
:10208000BE016D5E7F4F0E94D11865E676E00E942A
:10209000BA18BE01675E7F4F0E94D11865E676E0F0
:1020A0000E94BA186CE479E00E94D11865E676E0E7
:1020B0000E94BA1866E479E00E94D118BC01CE01F2
:1020C00001960E942919CE0107960E943E19CE0161
:1020D0000D960E943E19CE0143960E943E19CE01F4
:1020E00049960E943E19BE016F5F7F4F85ED97E0D4
:1020F0000E94A219CE0101960E943E1967EB76E07C
:10210000CE014F960E9414190150110909F4B6CE60
:1021100093CE60E084E2A6D160E081E2A3D160E0EA
:1021200082E2A0D166E574E084E399E00E9414198C
:1021300064E379E0CE0101960E944319CE01019635
:102140005AD2CE0101960E943E19CE0185960E9478
:102150003E19CE014F960E943E19AA960FB6F894EA
:10216000DEBF0FBECDBFDF91CF911F910F91FF90CA
:10217000EF90DF90CF90BF900895CF93DF9300D082
:1021800000D0CDB7DEB76ED164E379E0CE01019621
:102190000E944319CE0101962ED2CE0101960E94D3
:1021A0003E1926960FB6F894DEBF0FBECDBFDF9165
:1021B000CF91089590E0FC013197E231F10508F0EC
:1021C0004EC08827EE58FF4F8F4F0C94983A80915D
:1021D00080008F7703C0809180008F7D8093800086
:1021E000089580918000877FF9CF84B58F7702C0F2
:1021F00084B58F7D84BD08958091B0008F7703C032
:102200008091B0008F7D8093B00008958091900000
:102210008F7707C0809190008F7D03C080919000E0
:10222000877F8093900008958091A0008F7707C0EA
:102230008091A0008F7D03C08091A000877F809354
:10224000A0000895809120018F7707C08091200120
:102250008F7D03C080912001877F809320010895A6
:10226000EF92FF920F931F93CF93DF938B018770B1
:1022700098E0899FB001112460648BE199E00E948D
:10228000841A83E790E00197F1F7E801085F1F4F98
:102290008BE9E82EF12C69918BE199E0C4D5C70157
:1022A0000197F1F7C017D107B1F7DF91CF911F91D7
:1022B0000F91FF90EF90089530915F07313208F051
:1022C0004BC080913B078111FCCF90915E0722E0CB
:1022D00020933B0721E020933A072FEF2093390703
:1022E0001092380730933707EEE3F7E0A7E1B7E045
:1022F00020E0321721F041914D932F5FFACF1092D9
:10230000160720911607990F922B9093160790911C
:102310001507913061F4109215079091160790936C
:10232000BB009091BC0093FDF8CF95EC01C095EEF9
:102330009093BC0090913B079230E1F39091390764
:102340009F3F79F080913907803241F080913907C1
:10235000803331F084E005C081E003C082E001C039
:1023600083E010923D0710925F0710923C0708959A
:10237000FC0183818823B9F0962F618160956923E0
:102380006083828191E090933C0780935E07109276
:102390003D0710925F078FE099E00E94211B8CDFC0
:1023A000282F30E002C020E030E081E090E0232BD5
:1023B00011F080E090E00895EF92FF920F931F9349
:1023C000CF938C01FC0184E0C0E060FF02C09589DE
:1023D000C92B6695815031968111F7CF413011F4A8
:1023E000F8014489F8018585C82BC42B7801FEE0EB
:1023F000EF0EF11CF80162896C2BC701B9DFF801FF
:10240000628960956C23C701CF911F910F91FF9056
:10241000EF90AECFCF93DF93282F30E0F901EE514C
:10242000FE4F8491F901E456FE4FD491F901EA5A26
:10243000FE4FC491CC2389F08111BCDEEC2FF0E07B
:10244000EE0FFF1FE45CFE4FA591B491EC91ED23DC
:1024500081E090E021F480E002C080E090E0DF9134
:10246000CF9108951F93CF93DF93282F30E0F90188
:10247000EE51FE4F8491F901E456FE4FD491F901DB
:10248000EA5AFE4FC491CC23B9F0162F811192DE87
:10249000EC2FF0E0EE0FFF1FEE5DFE4FA591B49123
:1024A0009FB7F894111104C08C91D095D82302C025
:1024B000EC91DE2BDC939FBFDF91CF911F910895AC
:1024C000CF93DF9390E0FC01E456FE4F2491FC0192
:1024D000EA5AFE4F8491882361F190E0880F991F9A
:1024E000FC01E85FFE4FC591D491FC01EE5DFE4F0B
:1024F000A591B491611109C09FB7F8948881209586
:1025000082238883EC912E230BC0623061F49FB745
:10251000F8948881322F309583238883EC912E2B79
:102520002C939FBF06C08FB7F894E8812E2B288389
:102530008FBFDF91CF910895863308F08653909135
:102540007B00282F2870977F922B90937B002091FF
:10255000990290E4299F900111248770822B809327
:102560007C0080917A00806480937A0080917A0068
:1025700086FDFCCF809178002091790090E0922B2D
:1025800008958F929F92AF92BF92CF92DF92EF9277
:10259000FF926B017C010E9495264B015C01C114E6
:1025A000D104E104F104F1F00E949526DC01CB0195
:1025B00088199909AA09BB09883E9340A105B1056C
:1025C00070F321E0C21AD108E108F10888EE880E04
:1025D00083E0981EA11CB11CC114D104E104F104D4
:1025E00019F7DDCFFF90EF90DF90CF90BF90AF90C5
:1025F0009F908F9008952F923F924F925F926F928B
:102600007F928F929F92AF92BF92CF92DF92EF9282
:10261000FF920F931F93CF93DF93CDB7DEB7EE9763
:102620000FB6F894DEBF0FBECDBF9EAF8DAF8BE16E
:1026300099E072D70E941A0B60E080E00E94AA2500
:1026400060E476E08BE199E0A0D661E080E00E9452
:10265000AA2568E476E08BE199E097D662E080E015
:102660000E94AA2560E576E08BE199E08ED663E0D2
:1026700080E00E94AA2568E576E08BE199E085D6A6
:1026800060E083E00E94AA2563E08BE199E0CBD370
:1026900064E08BE199E0C7D361E083E00E94AA2562
:1026A00063E08BE199E0BFD364E08BE199E0BBD3B9
:1026B00062E083E00E94AA2563E08BE199E0B3D356
:1026C00064E08BE199E0AFD363E083E00E94AA2548
:1026D00063E08BE199E0A7D364E08BE199E0A3D3B9
:1026E00060E089E00E94AA2564E08BE199E09BD339
:1026F00061E089E00E94AA2564E08BE199E093D330
:1027000062E089E00E94AA2564E08BE199E08BD326
:1027100063E089E00E94AA2564E08BE199E083D31D
:1027200060E082E00E94AA2580E274DE1C0181E064
:102730002816310411F462E001C061E08BE199E0F8
:1027400072D361E082E00E94AA2581E263DE2C015F
:1027500081E04816510411F462E001C061E08BE1B0
:1027600099E061D362E082E00E94AA2582E252DE13
:102770003C0181E06816710411F462E001C061E07F
:102780008BE199E050D360E087E00E94AA2583E2C4
:1027900041DE8C01019711F462E001C061E08BE140
:1027A00099E041D361E087E00E94AA2584E232DE0D
:1027B0007C0181E0E816F10411F462E001C061E0FF
:1027C0008BE199E030D362E087E00E94AA2586E29F
:1027D00021DE6C0181E0C816D10411F462E001C071
:1027E00061E08BE199E01FD363E082E00E94AA25BB
:1027F0008CE110DE5C0181E0A816B10411F462E006
:1028000001C061E08BE199E00ED363E087E00E94B4
:10281000AA258DE1FFDD4C0181E08816910411F4B9
:1028200062E001C061E08BE199E0FDD2B401CE012C
:1028300001960E946926B501CE0107960E9469267D
:10284000B601CE010D960E946926B701CE014396CE
:102850000E946926B801CE0149960E946926B301FB
:10286000CE014F960E946926B201CE0185960E9444
:102870006926B101CE018B960E94692660E676E05A
:10288000CE01C19608D5BE01655D7F4FCE01C196D0
:1028900088D465E676E06ED4BE016B5D7F4F81D44F
:1028A00065E676E067D4BE01615E7F4F7AD465E667
:1028B00076E060D4BE01675E7F4F73D465E676E054
:1028C00059D4BE016D5E7F4F6CD465E676E052D47C
:1028D000BE01635F7F4F65D465E676E04BD4BE01F1
:1028E000695F7F4F5ED465E676E044D4BE016F5FDA
:1028F0007F4F57D465E676E03DD46DAD7EAD51D4C3
:1029000067E676E037D4BC01CE01C796BCD4CE01D1
:10291000C196B4D4CE018B96B1D4CE018596AED4F7
:10292000CE014F96ABD4CE014996A8D4CE014396A2
:10293000A5D4CE010D96A2D4CE0107969FD4CE0188
:1029400001969CD4BE01695C7F4F85ED97E0FAD477
:10295000CE01C79693D4EE960FB6F894DEBF0FBEA5
:10296000CDBFDF91CF911F910F91FF90EF90DF903E
:10297000CF90BF90AF909F908F907F906F905F901F
:102980004F903F902F900895CF92DF92FF920F9338
:102990001F93CF93DF93CDB7DEB762970FB6F8944E
:1029A000DEBF0FBECDBF6C0168EB76E0CE010D96A9
:1029B00072D464EF71E0CE010D9653D368EB76E0EC
:1029C000CE01079668D480919E0290919F02019754
:1029D000B1F461E473E085ED97E0D7D461E087E27C
:1029E00041DD64EF71E080E090E0CBDD08E710E0CE
:1029F00085ED97E024D1892B09F03CC074C060E0DC
:102A000087E230DD10929F0210929E0265E973E02A
:102A100086E499E009D463E973E085ED97E0B5D4E5
:102A200063E08EE00E94AA2566E479E08BE199E0FC
:102A300089D40E941A0B64E379E0CE01019623D475
:102A4000CE010196D8DDCE01019618D4CE010796AD
:102A500015D4CE010D9612D462960FB6F894DEBF4F
:102A60000FBECDBFDF91CF911F910F91FF90DF90EF
:102A7000CF90089585ED97E0C0D0F82E682FCE0155
:102A80000796A0D38AE2F812B3CF63E08EE00E94EB
:102A9000AA2562EB76E08BE199E077D463E08EE0E3
:102AA0000E94AA25BE01695F7F4F8BE199E04AD45D
:102AB0002B853C852150310940E050E0BE01695F23
:102AC0007F4FCE010196FBD3BE016F5F7F4FCE01DA
:102AD0000D968DD2CE010196D1D368EB76E0CE0172
:102AE0000796A2D385CF60E081E00E94AA25BE01AF
:102AF000635F7F4F8BE199E025D460EF74E0CE01F6
:102B00000D9656D2882351F063E473E086E499E091
:102B10008BD3B60185ED97E015D482CF0150110912
:102B200009F066CF10929F0210929E028BE199E00D
:102B3000F3D460E080E00E94AA2567E473E08BE1B3
:102B400099E023D461E080E00E94AA256CE573E05F
:102B50008BE199E01AD462E080E00E94AA256FE63A
:102B600073E08BE199E011D463E080E00E94AA2534
:102B700062E873E08BE199E008D468E873E180E0F3
:102B800090E0FFDC4DCF0895CF92DF92EF92FF925D
:102B90000F931F93CF93DF936C017A018B01C0E0F9
:102BA000D0E0CE15DF0581F0D8016D918D01D60101
:102BB000ED91FC910190F081E02DC6011995892BD2
:102BC00011F02196EECF7E01C701DF91CF911F91C9
:102BD0000F91FF90EF90DF90CF900895FC01538DFF
:102BE000448D252F30E0842F90E0821B930B5417E7
:102BF00010F0CF96089501970895FC01918D828D74
:102C0000981761F0828DDF01A80FB11D5D968C9140
:102C1000928D9F5F9F73928F90E008958FEF9FEF4B
:102C20000895FC01918D828D981731F0828DE80F07
:102C3000F11D858D90E008958FEF9FEF0895FC01C1
:102C4000918D228D892F90E0805C9F4F821B91098E
:102C50008F739927089585ED97E0F1DF21E0892BA7
:102C600009F420E0822F089582E798E0E8DF21E070
:102C7000892B09F420E0822F0895FC01848DDF0167
:102C8000A80FB11DA35ABF4F2C91848D90E00196DF
:102C90008F739927848FA689B7892C93A089B189CE
:102CA0008C91837080648C93938D848D981306C06F
:102CB0000288F389E02D80818F7D80830895EF92D3
:102CC000FF920F931F93CF93DF93EC0181E0888FE6
:102CD0009B8D8C8D981305C0E889F989808185FDCD
:102CE00025C0F62E0B8D10E00F5F1F4F0F731127BD
:102CF000E02E8C8DE8120BC00FB607FCFACFE889E6
:102D0000F989808185FFF5CFCE01B7DFF2CF8B8DBA
:102D1000FE01E80FF11DE35AFF4FF0829FB7F894D0
:102D20000B8FEA89FB89808180620AC09FB7F89483
:102D3000EE89FF896083E889F989808183708064E6
:102D400080839FBF81E090E0DF91CF911F910F9131
:102D5000FF90EF900895CF93DF93EC01888D882347
:102D6000C1F0EA89FB89808185FD05C0A889B98900
:102D70008C9186FD0EC00FB607FCF5CF808185FFD4
:102D8000F2CFA889B9898C9185FFEDCFCE0175DF8F
:102D9000E8CFDF91CF91089580E090E0892B19F082
:102DA00063DF811120C080E090E0892B19F053DFB0
:102DB00081111CC080E090E0892B41F080E090E020
:102DC000892B21F00E940000811113C080E090E067
:102DD000892BA1F080E090E0892B81F00E94000017
:102DE00081110AC008950E940000DDCF0E940000FA
:102DF000E1CF0E940000EACF0C940000089521E08A
:102E000001C0220F6A95EAF7DC011C962C931C97EF
:102E10001A965C934E931997ED91FC910484F58575
:102E2000E02D60E01994DC01ED91FC910684F785BA
:102E3000E02D41E0199581E090E008950E94A13CC9
:102E4000CF93DF93EC0188819981009711F00E9464
:102E5000383B198218821D821C821B821A82DF91E4
:102E6000CF9108950F931F93CF93DF93062F0F7089
:102E7000423019F440E0602F0DC0142FEC0170E0D7
:102E800084E0759567958A95E1F7CE0195DA412F33
:102E9000602FCE01DF91CF911F910F918DCAFC0160
:102EA00084858823A1F0218532852115310519F407
:102EB000611106C007C02130310521F4611102C043
:102EC000858701C015866585CF010E9651CA089584
:102ED000EF92FF920F931F93CF93DF93EC01062F96
:102EE000F42EE22E8B85888B109265071092640772
:102EF00010923D0710925F0710923B0711E010936C
:102F00003A071092150761E084E1ACDA61E085E1EF
:102F1000A9DA8091B9008E7F8093B9008091B900C1
:102F20008D7F8093B90088E48093B80085E4809316
:102F3000BC0087EC9AE1909363078093620788EC6A
:102F40009AE19093610780936007888910933C070A
:102F500080935E0710923D0710925F07ADD991E014
:102F6000811190E0998B811104C08FE099E021D309
:102F70008E878989882331F01F861C8260E0CE010C
:102F80000E96F6D92E2D4F2D602FCE01DF91CF91C9
:102F90001F910F91FF90EF9085C3FC01808191817B
:102FA000009711F00C94D83760E070E0CB010895E1
:102FB000FC0124813581232B31F421E06115710559
:102FC000A1F0FB0108C0FC018081918161157105B0
:102FD00031F421E0FC018081882339F005C00E9492
:102FE000AE3C21E0892B09F020E0822F08950F9359
:102FF0001F93CF93DF938C01EB01FC0180819181C2
:10300000009739F06881798161157105A1F40E94FA
:10301000383B88819981F801918380838A819B81E3
:10302000938382838C819D81958384831982188206
:103030001B821A820FC0F801428153812C813D818D
:103040004217530720F30E94B73C8C819D81F80101
:10305000958384831D821C82DF91CF911F910F91F4
:1030600008950F931F93CF93DF93EC01888199818B
:10307000009729F02A813B812617370788F48B01B6
:103080006F5F7F4F0E94C13B009761F099838883F7
:103090001B830A832C813D81232B11F4FC011082B8
:1030A00081E001C080E0DF91CF911F910F910895E1
:1030B000EF92FF920F931F93CF93DF9361157105EA
:1030C00011F480E01BC041155105B9F07B01EC0102
:1030D0008C819D818A01080F191FB801CE01C1DFC3
:1030E000882379F3288139818C819D81B701820FF2
:1030F000931F0E94B73C1D830C8381E0DF91CF9129
:103100001F910F91FF90EF900895EF92FF920F9310
:103110001F93CF93DF93CDB7DEB72E970FB6F894FA
:10312000DEBF0FBECDBF7C01CB01BA012AE08E010C
:103130000F5F1F4FA8010E940838F801019000207E
:10314000E9F73197AF01401B510BB801C701B0DF60
:10315000811102C0C70174DEC7012E960FB6F89424
:10316000DEBF0FBECDBFDF91CF911F910F91FF90BA
:10317000EF900895CF93DF93EC016115710559F03D
:10318000FB0101900020E9F73197AF01461B570B77
:103190008FDF811102C0CE0153DECE01DF91CF91CE
:1031A0000895CF93DF93EC01FB0144815581608149
:1031B00071817EDF811102C0CE0142DECE01DF913E
:1031C000CF910895CF93DF931F921F92CDB7DEB7B3
:1031D00069831A8241E050E0BE016F5F7F4F68DF74
:1031E0000F900F90DF91CF910895EF92FF920F9380
:1031F0001F93CF93DF93EC017B018A01BA0131DF8A
:10320000811103C0CE011CDE07C01D830C83B701F2
:10321000888199810E94B73CCE01DF91CF911F91A7
:103220000F91FF90EF900895CF93DF93EC0161151C
:10323000710551F0FB0101900020E9F73197AF01D2
:10324000461B570BD2DF01C0FBDDCE01DF91CF91D2
:103250000895CF93DF93EC01FB018617970751F098
:10326000608171816115710521F044815581BDDF57
:1032700001C0E6DDCE01DF91CF910895FC01808190
:1032800091810C94383BFC011182108213821282CE
:1032900015821482DECFFC01118210821382128209
:1032A000158214826115710549F0FB01019000201F
:1032B000E9F73197AF01461B570B97CF0895BF929F
:1032C000CF92DF92EF92FF920F931F93CF93DF93F2
:1032D0007C016B018A01E9012417350720F4812F55
:1032E0008901C42FD82F68EB76E0C701D4DFD6015F
:1032F00014968D919C91159708171907C0F48C1797
:103300009D0708F4EC01D601ED91FC911197EC0FAB
:10331000FD1FB08010826D917C91600F711FC701FD
:1033200083DFD601ED91FC91EC0FFD1FB082C70148
:10333000DF91CF911F910F91FF90EF90DF90CF9091
:10334000BF900895DB0114964D915C9115976D9196
:103350007C91DC01ED91FC910280F381E02D1994C8
:103360006115710579F0FB0101900020E9F73197B3
:10337000AF01461B570BDC01ED91FC910280F381FC
:10338000E02D199480E090E00895EACF1F920F920B
:103390000FB60F9211240BB60F922F933F934F93BA
:1033A0005F936F937F938F939F93AF93BF93EF93AD
:1033B000FF9385ED97E061DCFF91EF91BF91AF91B5
:1033C0009F918F917F916F915F914F913F912F913D
:1033D0000F900BBE0F900FBE0F901F9018951F926D
:1033E0000F920FB60F9211240BB60F922F938F935B
:1033F0009F93EF93FF93E091E507F091E6078081BB
:10340000E091EB07F091EC0782FD12C09081809172
:10341000EE078F5F8F732091EF07821751F0E091D5
:10342000EE07F0E0EB52F84F958F8093EE0701C066
:103430008081FF91EF919F918F912F910F900BBE03
:103440000F900FBE0F901F9018951F920F920FB6FE
:103450000F9211240BB60F922F933F934F935F93CC
:103460006F937F938F939F93AF93BF93EF93FF934C
:1034700082E798E002DCFF91EF91BF91AF919F91BD
:103480008F917F916F915F914F913F912F910F900D
:103490000BBE0F900FBE0F901F9018951F920F92AA
:1034A0000FB60F9211240BB60F922F938F939F9309
:1034B000EF93FF93E0918208F09183088081E0917F
:1034C0008808F091890882FD12C0908180918B0854
:1034D0008F5F8F7320918C08821751F0E0918B08D9
:1034E000F0E0EE58F74F958F80938B0801C08081F4
:1034F000FF91EF919F918F912F910F900BBE0F90A5
:103500000FBE0F901F901895DC01ED91FC91068481
:10351000F785E02D40E0199461E0F6DF8BE39FE151
:103520000197F1F708950895089585ED8093BC0003
:103530008091BC0084FDFCCF10923B070895409120
:10354000B207262F30E0240F311D21323105DCF483
:1035500020913B072430C9F4FC0180E090E08617FD
:1035600058F43091B2072191DC01AE56B84FA30F49
:10357000B11D2C930196F3CF8091B207680F609331
:10358000B20780E0089581E0089582E008950895EB
:1035900008950895E091650780916407E81730F475
:1035A000F0E0EE58F84F808190E008958FEF9FEFA4
:1035B00008959091650780916407981750F4E92F5A
:1035C000F0E0EE58F84F208130E09F5F9093650760
:1035D00002C02FEF3FEFC90108958091640790E08A
:1035E00020916507821B91090895CF92DF92EF9297
:1035F000FF920F931F93CF93DF937C01CB018A013E
:1036000020913C07222389F0EB016B01C40ED51EEB
:10361000CC15DD0561F06991D701ED91FC91019028
:10362000F081E02DC7011995F3CF642F88DFC80121
:10363000DF91CF911F910F91FF90EF90DF90CF908E
:103640000895CF93DF931F92CDB7DEB769832091A2
:103650003C072223D1F020915F07203240F021E087
:1036600030E0FC013383228380E090E014C080913D
:103670003D07E82FF0E0E25CF84F998190838F5F7F
:1036800080933D0780935F0704C061E0CE010196FF
:1036900056DF81E090E00F90DF91CF91089580E0B8
:1036A00090E008950F931F93CF93DF93EC01423086
:1036B00018F08C8188608C834F836887222329F0DF
:1036C000413019F48C8184608C8364E670E080E082
:1036D00090E00E94C1126C8164FD31C0E881F981E3
:1036E0000684F785E02D42E063E0CE0119958BE476
:1036F00096E40197F1F7E881F9810684F785E02DDA
:1037000042E063E0CE01199503E512E0C80101979C
:10371000F1F7E881F9810684F785E02D42E063E066
:10372000CE011995C8010197F1F7E881F981068466
:10373000F785E02D42E062E0CE01199514C0606289
:10374000CE01E2DE8BE496E40197F1F76C816062D2
:10375000CE01DADE03E512E0C8010197F1F76C81D2
:103760006062CE01D1DEC8010197F1F76C81606221
:10377000CE01CADE8BEE90E00197F1F784E08D83F5
:103780006CE0CE01C1DECE01C7DE82E08E8366E052
:10379000CE01BADEE881F9810484F585E02D6FEF72
:1037A000CE01DF91CF911F910F9119941F920F922B
:1037B0000FB60F9211240BB60F922F933F934F9396
:1037C0005F936F937F938F939F93AF93BF93EF9389
:1037D000FF938091B900887F803609F49CC068F51A
:1037E000883209F45BC090F4803109F454C038F495
:1037F000882309F4F6C0883009F44DC0F5C088313B
:1038000009F44CC0803209F45DC0EEC0803409F484
:1038100068C048F4803309F455C0883309F0E4C027
:1038200080933907D8C0803509F44FC0883509F432
:103830005DC0883409F0D8C0D6C0883909F4C7C043
:10384000A8F4883709F467C038F4883609F463C0EF
:10385000803709F460C0C8C0883809F4B8C080391E
:1038600009F45FC0803809F0BFC05BC0803B09F439
:1038700086C038F4803A09F466C0883A09F47FC0FB
:10388000B3C0803C09F4A7C0883C09F4A4C0883BBD
:1038900009F48AC0A9C08091160710C0909138071A
:1038A00080913707981770F5E091380781E08E0F07
:1038B00080933807F0E0E95EF84F80818093BB0089
:1038C00085EC86C0809339078EC0E091380781E08F
:1038D0008E0F809338078091BB00F0E0E95EF84FCF
:1038E000808390913807809137076EC0E091380748
:1038F00081E08E0F809338078091BB00F0E0E95E95
:10390000F84F808380913A0781116DC081E08093E8
:10391000150784EA61C083E080933B071092D407C7
:10392000CFCF8091D407803208F051C0E091D40706
:1039300081E08E0F8093D4078091BB00F0E0EC54BF
:10394000F84F8083BDCF85EC8093BC0010923B077D
:103950008091D407803230F4E091D407F0E0EC5449
:10396000F84F10826091D40770E0E0916007F09109
:10397000610784EB97E019951092D40735C084E075
:1039800080933B071092B3071092B207E091620751
:10399000F091630719958091B207811105C081E00C
:1039A0008093B20710929207E091B30781E08E0FE7
:1039B0008093B307F0E0EE56F84F80818093BB0010
:1039C0009091B3078091B207981708F479CF85E8F2
:1039D0008093BC0009C085EC8093BC0010923B072B
:1039E00003C010923907A1DDFF91EF91BF91AF9114
:1039F0009F918F917F916F915F914F913F912F9107
:103A00000F900BBE0F900FBE0F901F9018950C9447
:103A100096390C948E398F929F92AF92BF92DF921B
:103A2000EF92FF920F931F93CF93DF93CDB7DEB743
:103A30002A970FB6F894DEBF0FBECDBF69E676E0D9
:103A4000CE01019628DCCE01099664D2CE010796FC
:103A500061D226E832E044E852E062E872E0809108
:103A60008002909181020E94E40AD82E882319F0E6
:103A700062E776E011C026E632E044E652E062E614
:103A800072E080916002909161020E94E40AD82E57
:103A9000882329F069E776E0CE010196C5DB6AE06C
:103AA00070E080E090E00E94C112EF80F884098508
:103AB0001A85E016F10619F4DD2041F2870162E76C
:103AC00076E0CE01019674DA811192C069E776E062
:103AD000CE0101966DDA81118DC0E016F10609F470
:103AE0007CC00115110529F481E0E816F10479F58F
:103AF0008AC00130110529F493E0E916F104E9F4D4
:103B000021C00330110529F482E0E816F10479F4AC
:103B10002FC00230110589F4E114F10409F473C0D7
:103B200093E0E916F10409F473C080E06DC001E090
:103B3000EA94EF2809F06EC016C00130110539F47F
:103B400080E001C081E001E0EF2859F009C0012BBD
:103B500009F060C080E001E092E0E916F10409F0AC
:103B600000E0811105C010E011950195110902C016
:103B700001E010E00E94BA2680906E0790906F07D7
:103B8000A0907007B0907107DC01CB0188199909EA
:103B9000AA09BB090B97A105B105FCF0013011057D
:103BA00061F40E94BA2660936E0770936F0780934A
:103BB00070079093710701E020C00F3F1F4FE1F4A1
:103BC0000E94BA2660936E0770936F078093700708
:103BD000909371070FEF1FEF11C08F8198859A871F
:103BE0008987DD2009F432CFCE01019647DB14C06E
:103BF00002E003C003E001C000E010E0CE01019646
:103C00003DDBC80109C081E0012B09F4A4CFA8CF96
:103C100001E0A9CF00E0A7CF2A960FB6F894DEBF47
:103C20000FBECDBFDF91CF911F910F91FF90EF900D
:103C3000DF90BF90AF909F908F9008954F925F92CA
:103C40006F927F928F929F92AF92BF92CF92DF92AC
:103C5000EF92FF92CF93DF93CDB7DEB762970FB6A7
:103C6000F894DEBF0FBECDBF68EB76E0CE010D96B7
:103C700012DB8BE199E050DC63E08CE06BD761EB09
:103C800076E08BE199E081DB80E00E949C12BC0130
:103C9000990F880B990B0E947B3820E030E040EAB6
:103CA00050E40E94DA3820E030E040E85AE30E9415
:103CB000DA3820E030E048E453E40E94DA3820E0CB
:103CC00030E040EA50E40E94BD390E94253A6093FA
:103CD000660770936707809368079093690763E0AE
:103CE00080E038D76FE776E08BE199E04EDB6091BA
:103CF000660770916707809168079091690772D78E
:103D00006CE876E08BE199E040DB409166075091EA
:103D100067076091680770916907CE010796EDD635
:103D200061E976E0CE010196B6DABE01695F7F4FA8
:103D3000CE01019636DA67E676E01CDABC01CE01E8
:103D40000D9687DACE01019699DACE01079696DABA
:103D5000BE01635F7F4F85ED97E0F4DA60E080E0BD
:103D6000F9D669E976E08BE199E00FDB66EB76E066
:103D70008BE199E00ADB68E976E08BE199E005DB0D
:103D800066EB76E08BE199E000DB6BE976E08BE1B6
:103D900099E0FBDA66EB76E08BE199E0F6DA6EE922
:103DA00076E08BE199E0F1DA66EB76E08BE199E081
:103DB000ECDA61EA76E08BE199E0E7DA61E080E055
:103DC000C9D664E08BE199E02ED867EB76E08BE111
:103DD00099E0DBDA64E08BE199E025D867EB76E0E7
:103DE0008BE199E0D2DA64E08BE199E01CD867EBD3
:103DF00076E08BE199E0C9DA64E08BE199E013D8D1
:103E000067EB76E08BE199E0C0DA64E08BE199E062
:103E10000AD867EB76E08BE199E0B7DA64E08BE1F2
:103E200099E001D867EB76E08BE199E0AEDA64E0E7
:103E30008BE199E00E94131767EB76E08BE199E044
:103E4000A4DA64E08BE199E00E94131767EB76E057
:103E50008BE199E09ADA64E08BE199E00E94131714
:103E600067EB76E08BE199E090DA64E08BE199E032
:103E70000E94131762E080E06DD664EA76E08BE181
:103E800099E083DA62E080E065D6C12CD12C76011E
:103E9000C39495E0892E912CA12CB12C26013701D9
:103EA0008FEFC81AD80AE80AF80A6091660770917D
:103EB00067078091680790916907A50194010E94A6
:103EC0007C3A241535054605570534F068E08BE14A
:103ED00099E00E941317E2CF6AEF70E080E090E073
:103EE0000E94C112CE010D96C9D962960FB6F89400
:103EF000DEBF0FBECDBFDF91CF91FF90EF90DF907F
:103F0000CF90BF90AF909F908F907F906F905F9079
:103F10004F9008950F931F93CF93DF938C018BE104
:103F20000E940A12EC018AE10E940A12CC0FDD1FE6
:103F30008C0F9D1FF80191838083DF91CF911F919A
:103F40000F9108958BE199E0E7DA0E941A0B60E087
:103F500080E000D669EB76E08BE199E016DA64E068
:103F60008BE199E00E94131761E080E0F3D567E0F0
:103F70008BE199E00E94131763EC76E08BE199E006
:103F800004DA60910D0770910E0780910F079091F0
:103F9000100728D667EC76E08BE199E0F6D962E06D
:103FA00080E0D8D564E08BE199E00E9413176CECB7
:103FB00076E08BE199E0E9D96091090770910A07F1
:103FC00080910B0790910C070DD667EC76E08BE1A2
:103FD00099E0DBD963E080E0BDD564E08BE199E056
:103FE0000E94131760ED76E08BE199E0CED96CE486
:103FF00079E08BE199E0A6D961E08BE0ABD564E094
:104000008BE199E00E94131767ED76E08BE199E070
:10401000BCD96091050770910607809107079091C0
:104020000807E0D561E081E195D56DE876E08BE1A8
:1040300099E0ABD962E08BE08DD564E08BE199E04B
:104040000E9413176AED76E08BE199E09ED980918A
:10405000010790910207A0910307B091040701970F
:10406000A105B10519F460EE75E002C064E073E0EB
:104070008BE199E08AD963E08BE06CD564E08BE159
:1040800099E00E94131760EE76E08BE199E07DC91C
:104090004F925F926F927F928F929F92AF92BF9258
:1040A000CF92DF92EF92FF920F931F93CF93DF9304
:1040B000CDB7DEB762970FB6F894DEBF0FBECDBFA7
:1040C00066EE76E0CE010196E6D880E090E0092E1B
:1040D000000CAA0BBB0B40910D0750910E0760918D
:1040E0000F0770911007840F951FA61FB71FB7FD0C
:1040F00009C080930D0790930E07A0930F07B0930C
:10410000100708C010920D0710920E0710920F07AB
:104110001092100761E080E01DD567E08BE199E027
:104120000E94131761E084E015D561EB76E08BE126
:1041300099E02BD961E084E00DD560910D07709175
:104140000E0780910F07909110074CD567EC76E031
:104150008BE199E01AD95FDC8230910519F462E7AE
:1041600076E006C08330910509F0B1CF69E776E0CB
:10417000CE01019659D869E776E0CE0101960E94FA
:10418000D817882309F464C069E676E0CE01019669
:104190004BD880E090E0092E000CAA0BBB0B40919D
:1041A000090750910A0760910B0770910C07840F63
:1041B000951FA61FB71FB7FD09C0809309079093ED
:1041C0000A07A0930B07B0930C0708C010920907C9
:1041D00010920A0710920B0710920C0761E080E022
:1041E000B9D464E08BE199E00E94131762E080E0AB
:1041F000B1D467E08BE199E00E94131762E084E09C
:10420000A9D461EB76E08BE199E0BFD862E084E06D
:10421000A1D46091090770910A0780910B079091D2
:104220000C07E0D467EC76E08BE199E0AED8F3DBE5
:104230008230910519F462E776E006C0833091057B
:1042400009F0A9CF69E776E0CE0101960E94141922
:1042500068EB76E0CE0107961ED868EB76E0CE01DB
:104260000D9619D862E073E08CE499E00E94D817AB
:10427000882349F062E073E0CE0107960E9414198A
:1042800066E073E008C066E073E0CE0107960E9426
:10429000141962E073E0CE010D960E94141969E7CB
:1042A00076E0CE0101960E94D817882309F450C009
:1042B00069E676E0CE0101960E94141901E010E053
:1042C00080E090E0080F191F62E080E043D464E0D2
:1042D0008BE199E00E94131763E080E03BD467E034
:1042E0008BE199E00E94131763E087E033D464EB1D
:1042F00076E08BE199E049D863E087E02BD4C801F0
:1043000017FF04C088279927801B910BBE0180FFEF
:1043100003C0695F7F4F02C0635F7F4F8CE499E009
:104320000E9429196CE479E08BE199E00BD873DBEA
:104330008230910519F462E776E006C0833091057A
:1043400009F0C0CF69E776E0CE0101960E9414190A
:1043500069E776E0CE0101960E94D817882309F418
:104360006AC069E676E0CE0101960E94141980E0E9
:1043700090E0092E000CAA0BBB0B40910507509151
:1043800006076091070770910807840F951FA61F05
:10439000B71FB7FD09C08093050790930607A09348
:1043A0000707B093080708C0109205071092060788
:1043B000109207071092080763E080E0CBD364E017
:1043C0008BE199E00E94131761E08BE0C3D367E0B3
:1043D0008BE199E00E94131761E08EE0BBD365EB9F
:1043E00076E08BE199E00E94C51961E08EE0B2D3DE
:1043F0006091050770910607809107079091080763
:10440000F1D361E081E1A6D36DE876E08BE199E03C
:104410000E94C51900DB8230910519F462E776E04D
:1044200006C08330910509F0A4CF69E776E0CE019C
:1044300001960E94141969E776E0CE0101960E9468
:10444000D817882309F46FC069E676E0CE0101969B
:104450000E94141980E090E022E0C22ED12CE12CC1
:10446000F12C092E000CAA0BBB0B409101075091B7
:10447000020760910307709104078C019D01040FEE
:10448000151F261F371FC901B801A70196010E94F9
:104490007C3A60930107709302078093030790931F
:1044A000040761E08BE056D364E08BE199E00E9461
:1044B000131762E08BE04ED367E08BE199E00E9436
:1044C000131762E081E146D367EB76E08BE199E078
:1044D0000E94C51962E081E13DD38091010790916E
:1044E0000207A0910307B09104070197A105B10548
:1044F00019F460EE75E002C064E073E08BE199E0CE
:104500000E94C51988DA8230910519F462E776E0D5
:1045100006C08330910509F0A4CF69E776E0CE01AB
:1045200001960E94141969E776E0CE0101960E9477
:10453000D817882309F47DC069E676E0CE0101969C
:104540000E9414194090A8025090A9026090AA02FB
:104550007090AB028FE0882E912CA12CB12C95E0AD
:10456000C92ED12CE12CF12C8091050790910607E2
:10457000A0910707B0910807B7FF08C01092050780
:1045800010920607109207071092080762E08BE06E
:10459000E1D264E08BE199E00E94131763E08BE0C5
:1045A000D9D267E08BE199E00E94131734DA8230A8
:1045B000910519F462E776E005C08330910539F47E
:1045C00069E776E0CE0101960E94141932C0019786
:1045D00059F640920D0750920E0760920F077092A5
:1045E00010078092090790920A07A0920B07B092D9
:1045F0000C07C0920507D0920607E0920707F092D9
:10460000080762E579E08CE499E00E9429199ADCB8
:1046100061E080E09FD264E08BE199E00E94131793
:1046200062E08BE097D267E08BE199E00E9413177C
:104630009BCFCE010D960E943E19CE0107960E9497
:104640003E19CE0101960E943E1962960FB6F8946B
:10465000DEBF0FBECDBFDF91CF911F910F91FF90B5
:10466000EF90DF90CF90BF90AF909F908F907F9012
:104670006F905F904F900895CF93DF93CDB7DEB7E3
:1046800062970FB6F894DEBF0FBECDBF68EB76E041
:10469000CE010D960E944B1980911107909112073F
:1046A000A0911307B0911407892B8A2B8B2B09F04B
:1046B0007EC080E00E949C12BC01990F880B990B70
:1046C0000E947B3820E030E040EA50E40E94DA3873
:1046D00020E030E040E85AE30E94DA3820E030E0A1
:1046E00048E453E40E94DA3820E030E040EA50E445
:1046F0000E94BD390E94253A609366077093670750
:10470000809368079093690760E08AE023D26FEA9C
:1047100076E08BE199E00E94C51960E08AE01AD248
:1047200060916607709167078091680790916907AB
:1047300059D26CE876E08BE199E00E94C51910929D
:10474000110710921207109213071092140740914C
:104750006607509167076091680770916907CE01FD
:104760000796CBD161E976E0CE0101960E944B1904
:10477000BE01695F7F4FCE0101960E94D11867E6A6
:1047800076E00E94BA18BC01CE010D960E9429194C
:10479000CE0101960E943E19CE0107960E943E1955
:1047A000BE01635F7F4F85ED97E00E94A219809163
:1047B000110790911207A0911307B0911407019669
:1047C000A11DB11D84369105A105B10549F0809365
:1047D000110790931207A0931307B093140708C012
:1047E00010921107109212071092130710921407DB
:1047F000CE010D960E943E1962960FB6F894DEBF68
:104800000FBECDBFDF91CF9108954F925F926F920F
:104810007F928F929F92AF92BF92CF92DF92EF9250
:10482000FF92CF93DF93CDB7DEB760970FB6F894C2
:10483000DEBF0FBECDBF4B015C0197FF0AC063E036
:104840008AE088D16FEE76E08BE199E00E94C5198D
:1048500018C120E83EEE46E350E00E947C3A290170
:104860003A01C501B40120E63AEE40E050E00E9472
:104870007C3ACA01B9012CE330E040E050E00E94EC
:104880007C3A6B017C0163E08AE064D16EEA76E0F9
:104890008BE199E00E94C519C301B2010E947B38E7
:1048A0006D877E878F87988B20E030E040E251E46F
:1048B0000E94563A18160CF04CC063E08EE04AD1C4
:1048C000B301A201CE01019618D1BE016F5F7F4FE7
:1048D000CE0107960E9443196AEF76E0CE01079653
:1048E0000E94BA18BC018BE199E00E94A219CE0186
:1048F00007960E943E19CE0101960E943E19C701FB
:10490000B6010E947B3820E030E040E251E40E9492
:104910007538B701A60187FFA6C0CE010796EDD076
:1049200069E976E0CE0101960E944B19BE01695FEC
:104930007F4FCE0101960E94D118BC018BE199E016
:104940000E94A219CE0101960E943E19CE0107963F
:1049500096C0411451046104710481F120E030E0FB
:1049600040E251E46D857E858F8598890E94753877
:1049700063E087FF02C08CE001C08BE0EBD0B301A5
:10498000A201CE010196B9D0BE016F5F7F4FCE016B
:1049900007960E9443196CEF76E0CE0107960E94BD
:1049A000BA18BC018BE199E00E94A219CE010796CA
:1049B0000E943E19CE0101960E943E19C701B60120
:1049C0000E947B3820E030E040E251E40E947538DC
:1049D00063E087FF02C08FE001C08EE0BBD0C5015D
:1049E000B40128EE33E040E050E00E947C3ACA0176
:1049F000B9012CE330E040E050E00E947C3A4B01EA
:104A00005C01B701A601CE01019677D0BE016F5FB0
:104A10007F4FCE0107960E9443196CEF76E0CE01DE
:104A200007960E94BA18BC018BE199E00E94A21976
:104A3000CE0107960E943E19CE0101960E943E19B2
:104A4000C501B4010E947B3820E030E040E251E42F
:104A50000E94753863E087FF02C082E101C081E1F6
:104A600079D0B501A401CE01019647D0BE016F5F98
:104A70007F4F8BE199E00E94A219CE0101960E941E
:104A80003E1960960FB6F894DEBF0FBECDBFDF9122
:104A9000CF91FF90EF90DF90CF90BF90AF909F901D
:104AA0008F907F906F905F904F900895FC01A08948
:104AB000B18982E08C93A485B5851C92A685B785C3
:104AC0008FEC8C93108EA489B58986E08C93A28993
:104AD000B3898C9180618C93A289B3898C91886011
:104AE0008C93A289B3898C9180688C930288F38916
:104AF000E02D80818F7D808308950F931F93CF9346
:104B0000DF93CDB7DEB7A2970FB6F894DEBF0FBE26
:104B1000CDBF8C01CB01BA01F80111821082138242
:104B20001282158214822AE0AE014F5F5F4F0E940D
:104B30000838BE016F5F7F4FC8010E941419A2960A
:104B40000FB6F894DEBF0FBECDBFDF91CF911F919E
:104B50000F9108950F931F93CF93DF93CDB7DEB7D7
:104B600028970FB6F894DEBF0FBECDBF0091C202EA
:104B70001091C3022091C4023091C5020D831E839F
:104B80002F8338870091C6021091C7022091C80276
:104B90003091C90209831A832B833C8390912209A7
:104BA000691710F06FEF690F40912309262F30E04D
:104BB000FE01E20FF31F403121F4943011F46181C2
:104BC00001C06581680F60688BE199E028960FB697
:104BD000F894DEBF0FBECDBFDF91CF911F910F9133
:104BE0000C94841A8F929F92AF92BF92CF92DF92D1
:104BF000EF92FF920F931F93CF93DF93CDB7DEB762
:104C0000A1970FB6F894DEBF0FBECDBF6B017C013C
:104C100097FF2DC06DE28BE199E00E9413178C0184
:104C200022273327A9012C193D094E095F0919A232
:104C3000CE0181967C019AE0892E912CA12CB12C79
:104C4000CA01B901A50194010E945A3A605DF701B9
:104C500062937F01211531054105510589F7BF0197
:104C60008BE199E00E94B019800F911F1FC09B013A
:104C7000AC0119A28E010F5D1F4F8AE0C82ED12C06
:104C8000E12CF12CCA01B901A70196010E945A3A00
:104C9000605DF80162938F012115310541055105D1
:104CA00089F7BF018BE199E00E94B019A1960FB678
:104CB000F894DEBF0FBECDBFDF91CF911F910F9152
:104CC000FF90EF90DF90CF90BF90AF909F908F902C
:104CD00008950F931F93CF93DF93CDB7DEB76297FD
:104CE0000FB6F894DEBF0FBECDBF8C01CB01F8012B
:104CF0001182108213821282158214824AE0BE0150
:104D00006F5F7F4F0E94FE37BE016F5F7F4FC8010C
:104D10000E94141962960FB6F894DEBF0FBECDBF85
:104D2000DF91CF911F910F9108953FB7F894809133
:104D30005D0990915E09A0915F09B091600926B567
:104D4000A89B05C02F3F19F00196A11DB11D3FBFC3
:104D5000BA2FA92F982F8827820F911DA11DB11D51
:104D6000BC01CD0142E0660F771F881F991F4A954D
:104D7000D1F708952FB7F8946091590970915A09A5
:104D800080915B0990915C092FBF08951F920F924B
:104D90000FB60F9211242F933F938F939F93AF934E
:104DA000BF938091590990915A09A0915B09B091E4
:104DB0005C093091580923E0230F2D3720F4019628
:104DC000A11DB11D05C026E8230F0296A11DB11D2E
:104DD000209358098093590990935A09A0935B092D
:104DE000B0935C0980915D0990915E09A0915F0983
:104DF000B09160090196A11DB11D80935D0990934A
:104E00005E09A0935F09B0936009BF91AF919F9134
:104E10008F913F912F910F900FBE0F901F9018957B
:104E2000CF93DF93CDB7DEB7E6970FB6F894DEBF2A
:104E30000FBECDBF789484B5826084BD84B5816097
:104E400084BD85B5826085BD85B5816085BD809155
:104E50006E00816080936E001092810080918100CD
:104E600082608093810080918100816080938100C5
:104E7000809180008160809380008091B100846087
:104E80008093B1008091B00081608093B0008091E8
:104E90009100826080939100809191008160809365
:104EA0009100809190008160809390008091A1009A
:104EB00082608093A1008091A10081608093A10015
:104EC0008091A00081608093A00080912101826088
:104ED0008093210180912101816080932101809143
:104EE000200181608093200180917A00846080930A
:104EF0007A0080917A00826080937A0080917A00B3
:104F0000816080937A0080917A00806880937A0033
:104F10001092C10081E08093990280E090E00E94AD
:104F2000091D90E0A0E0B0E080930D0790930E077C
:104F3000A0930F07B093100781E090E00E94091D35
:104F400090E0A0E0B0E08093090790930A07A09357
:104F50000B07B0930C0782E090E00E94091D90E0DF
:104F6000A0E0B0E08093050790930607A0930707A1
:104F7000B093080783E090E00E94091D182F84E099
:104F800090E00E94091D90E0A0E0B0E0809301074E
:104F900090930207A0930307B0930407111103C075
:104FA00062E073E002C066E073E08CE499E00E9486
:104FB000141985ED97E07ADD82E798E077DD62E00D
:104FC000809178020E94601262E0809188020E94C3
:104FD000601262E0809170020E94601262E0809133
:104FE00068020E94601262E0809148020E94601292
:104FF00062E0809150020E94601262E08091800223
:105000000E94601262E0809160020E94601262E081
:1050100080919A020E94601262E0809190020E9448
:10502000601262E0809158020E94601262E08AE1A0
:105030000E94601262E08BE10E94601261E080E2F7
:105040000E94601261E081E20E94601261E082E2EF
:105050000E94601261E083E20E94601261E084E2DB
:105060000E94601261E085E20E94601261E086E2C7
:105070000E94601261E087E20E94601261E088E2B3
:105080000E94601261E08CE10E94601261E08DE19B
:105090000E94601260E080E20E94321260E081E2D1
:1050A0000E94321260E082E20E94321260E083E2EB
:1050B0000E94321260E084E20E94321260E085E2D7
:1050C0000E94321260E087E20E94321260E088E2C1
:1050D0000E94321260E08CE10E94321260E08DE1A9
:1050E0000E943212809178020E940A1290937B02F1
:1050F00080937A02809188020E940A1290938B0218
:1051000080938A02809170020E940A129093730227
:1051100080937202809168020E940A1290936B023F
:1051200080936A02809148020E940A1290934B0277
:1051300080934A02809150020E940A129093530277
:1051400080935202809180020E940A1290938302FF
:1051500080938202809160020E940A1290936302FF
:105160008093620280919A020E940A1290939D029B
:1051700080939C02809190020E940A129093930265
:1051800080939202809158020E940A1290935B02CF
:1051900080935A0220E044E064E18BE199E00E94B0
:1051A000681740E050E063E08BE199E00E94FF1651
:1051B00061E08BE199E00E944F176FE372E081E0BC
:1051C0000E94301166E372E082E00E9430116DE2CD
:1051D00072E083E00E94301164E272E084E00E9499
:1051E00030116BE172E085E00E94301162E172E003
:1051F00086E00E94301169E072E087E00E94301181
:1052000060E072E088E00E94301160E081E0A2DCA2
:105210006BE073E08BE199E00E94C51961E083E0E7
:1052200099DC6EE173E08BE199E00E94C51962E0C0
:1052300084E090DC6EE273E08BE199E00E94C51996
:1052400063E080E087DC04E110E068E08BE199E056
:105250000E94131764E170E080E090E00E94C112A8
:105260000150110991F763E080E074DC13E163E021
:10527000812F70DC67EB76E08BE199E00E94C51925
:1052800064E170E080E090E00E94C112115078F774
:105290000E941A0B64E379E0CE0101960E94431943
:1052A000CE0101960E94FB12CE0101960E943E198A
:1052B00001E010E068EB76E08AE399E00E941419BF
:1052C00080E28093980264EF71E08AE399E00E94A3
:1052D000311885ED97E00E941F16892B29F08091E7
:1052E00098028A3209F00DC562E370E080E090E038
:1052F0000E94C11268EB76E0CE01C1960E944B1964
:1053000064EF71E0CE01C1960E94311868EB76E03F
:10531000CE018B960E944B19AFD920EA32E04EE9BC
:1053200052E06CE972E080919A0290919B020E9497
:10533000E40A811109C06BE373E08AE399E00E94FB
:10534000D817882309F469C06BE373E08AE399E016
:105350000E94D817882371F081E090E020919E028E
:1053600030919F02232B11F080E090E090939F02F8
:1053700080939E0280919E0290919F02019709F076
:10538000EEC461E473E085ED97E00E94C51961E029
:1053900087E20E94321264EF71E080E090E00E94A8
:1053A000C11258E7E52EF12C85ED97E00E941F16FB
:1053B000892B09F0E9C460E081E0CCDBBE016F5CC1
:1053C0007F4F8BE199E00E94A21960EF74E0CE015B
:1053D000C1960E94D817882309F417C563E473E0C7
:1053E00086E499E00E94141963E08EE0B3DB66E482
:1053F00079E08BE199E00E94A2190E941A0B64E304
:1054000079E0CE0101960E944319CE0101960E94D7
:10541000FB12CE0101960E943E1964E670E080E026
:1054200090E00E94C11262E073E08CE499E00E9477
:10543000D817882309F49EC065E973E086E499E0F3
:105440000E94D817882309F126E932E044E952E0A6
:1054500062E972E080919002909191020E94E40AC8
:105460008091920290919302892B29F410939502D6
:10547000009394020AC0809196029091970201973E
:1054800021F4109295021092940263E473E086E492
:1054900099E00E94D8178823E1F069E973E08AE374
:1054A00099E00E94D817882321F010939502009369
:1054B00094026FE973E08AE399E00E94D817882389
:1054C00041F0109397020093960210929502109269
:1054D000940280919402909195020197B1F40E94F8
:1054E0001E1E61E088E20E94321261E08CE10E949F
:1054F000321261E086E20E94321261E082E20E9492
:10550000321261E083E20E94321280919602909101
:105510009702019779F560E088E20E94321260E01C
:105520008CE10E94321260E086E20E94321260E05A
:1055300082E20E94321260E083E20E9432121092F4
:1055400097021092960264E379E0CE0101960E94E0
:105550004319CE0101960E94FB12CE0101960E94D2
:105560003E19109211071092120710921307109211
:10557000140782D82EE832E04CE852E06AE872E084
:1055800080918802909189020E94E40A882341F068
:1055900065E973E086E499E00E94D817811108C09C
:1055A00065EA73E08AE399E00E94D817882331F115
:1055B00065EA73E08AE399E00E94D817882371F0C6
:1055C00081E090E020918C0230918D02232B11F02C
:1055D00080E090E090938D0280938C0280918C0209
:1055E00090918D02019751F40E94400E10928D020D
:1055F00010928C0210928502109284022EE732E003
:105600004CE752E06AE772E080917802909179026B
:105610000E94E40A882341F065E973E086E499E09A
:105620000E94D817811109C06BEA73E08AE399E000
:105630000E94D817882309F497C06BEA73E08AE3C5
:1056400099E00E94D817882391F081E090E02091A2
:105650007C0230917D02232B11F080E090E090934A
:105660007D0280937C0210937F0200937E0268EBA0
:1056700076E0CE010D960E944B1964EF71E0CE01E9
:105680000D960E94311868EB76E0CE0107960E94D5
:105690004B1980917C0290917D02019709F4FBC324
:1056A00080917C0290917D02892B09F047C0109275
:1056B0008702109286025EDB60E080E20E94321276
:1056C00064E379E0CE0101960E944319CE01019670
:1056D0000E94FB12CE0101960E943E1930E6C32EB5
:1056E0003AEED32EE12CF12C85ED97E00E941F16A7
:1056F000892B09F0D1C465E973E086E499E00E9442
:10570000D817882361F026E832E044E852E062E8E6
:1057100072E080918002909181020E94E40A80915F
:10572000860290918702019709F0F7C460E08CE14E
:105730000E94321260E083E20E94321264E379E058
:10574000CE0101960E944319CE0101960E94FB12E0
:10575000CE0101960E943E19CE0107960E943E1985
:10576000CE010D960E943E1926E732E044E752E052
:1057700062E772E080917002909171020E94E40AE7
:10578000882341F065E973E086E499E00E94D81728
:10579000811108C068E074E08AE399E00E94D8179C
:1057A0008823E9F068E074E08AE399E00E94D81762
:1057B000882371F081E090E02091740230917502AD
:1057C000232B11F080E090E0909375028093740297
:1057D0008091740290917502019709F4B9C42EE684
:1057E00032E04CE652E06AE672E080916802909105
:1057F00069020E94E40A882341F065E973E086E4C7
:1058000099E00E94D817811108C06BE574E08AE323
:1058100099E00E94D817882331F16BE574E08AE3A0
:1058200099E00E94D817882371F081E090E02091E0
:105830006C0230916D02232B11F080E090E0909388
:105840006D0280936C0280916C0290916D020197C1
:1058500051F40E94480110926D0210926C02109255
:1058600085021092840226E632E044E652E062E6C7
:1058700072E080916002909161020E94E40A8823A4
:1058800041F065E973E086E499E00E94D817811140
:10589000EDC661E674E08AE399E00E94D8178111B1
:1058A000E5C65EC0809198028A3291F185ED97E05D
:1058B0000E94FD15F82E682F80E499E00E94E218FE
:1058C0002AE2F2121FC0209144093091450921506B
:1058D000310940E050E060E479E0CE0101960E9499
:1058E0005F19BE016F5F7F4F8AE399E00E94F7174F
:1058F000CE0101960E943E1968EB76E080E499E0C3
:105900000E94141985ED97E00E941F16892B51F60D
:1059100062E370E080E090E00E94C1128091640236
:1059200090916502019709F4B4C623E030E040E0AD
:1059300050E06AE379E0CE0101960E945F1963E6C8
:1059400074E0CE0101960E94D817F82ECE01019680
:105950000E943E19F1109DC6CE014F960E943E193D
:105960002EE532E04CE552E06AE572E080915802A3
:10597000909159020E94E40A882309F450C060E023
:1059800080E0E8D862EF74E08BE199E00E94C519ED
:105990006AE080E090E00E94071D6FE081E090E007
:1059A0000E94071D65E082E090E00E94071D62E012
:1059B00073E082E599E00E94D817882311F060E037
:1059C00001C061E083E090E00E94071D61E084E097
:1059D00090E00E94071D8BE199E00E948C1A60E024
:1059E00080E0B8D865E774E08BE199E00E94C519C2
:1059F00061E080E0AFD863E874E08BE199E00E9459
:105A0000C51962E080E0A6D864E974E08BE199E012
:105A10000E94C5196FEF7FEFCB010E94C11226E5EE
:105A200032E044E552E062E572E0809150029091EC
:105A300051020E94E40A882341F065E973E086E49C
:105A400099E00E94D817811108C068EA74E08AE3DF
:105A500099E00E94D8178823E9F068EA74E08AE3A5
:105A600099E00E94D817882371F081E090E020919E
:105A7000540230915502232B11F080E090E0909376
:105A800055028093540280915402909155020197DF
:105A900009F466C769E474E08AE399E00E94D817C4
:105AA000882309F487C068EB76E0CE0149960E940E
:105AB0004B19C0900107D0900207E0900307F090C7
:105AC0000407409105075091060760910707709100
:105AD0000807CE01019611D84091090750910A0795
