:10000000C9C10000F8C10000F6C10000F4C1000041
:10001000F2C10000F0C10000EEC10000ECC1000020
:10002000EAC10000E8C10000E6C10000E4C1000030
:10003000E2C10000E0C10000DEC10000DCC1000040
:10004000DAC10000D8C10000D6C10000D4C1000050
:10005000D2C10000D0C10000CEC100000C948311B9
:10006000CAC10000C8C10000C6C10000C4C1000070
:10007000C2C10000C0C10000BEC10000BCC1000080
:10008000BAC10000B8C10000B6C10000B4C1000090
:100090000C94E20E0C94B90EAEC100000C94720ADE
:1000A000AAC10000A8C10000A6C10000A4C10000B0
:1000B000A2C10000A0C100009EC100009CC10000C0
:1000C0009AC1000098C1000096C1000094C10000D0
:1000D00092C1000090C100008EC100008CC10000E0
:1000E0008AC1000097049304B204C304A504C304A6
:1000F000C304C304C304C304A004C304C304AD0401
:10010000C304C304C304A904C304C304C304C304D1
:10011000BD04B704C304C304C304C304C304C304B9
:100120006D04C30489048E04C3047104C304C304AE
:10013000C304C3049B04C30485047C04C304750482
:10014000C304C304C304C3048104C304C304C304B9
:100150005F046404330F360F250F290F2F0F6D0F27
:100160003A0F3E0F440F480F4C0F520F560F5A0FC5
:100170006D0F600F640F680F00407A10F35A00A0F3
:10018000724E18090010A5D4E80000E87648170060
:1001900000E40B54020000CA9A3B000000E1F505A0
:1001A000000080969800000040420F000000A086EA
:1001B00001000000102700000000E803000000001C
:1001C0006400000000000A000000000001000000C0
:1001D00000002C76D888DC674F0823DFC1DFAE59DA
:1001E000E1B1B796E5E3E453C63AE651997696E86D
:1001F000E6C28426EB898C9B62ED407C6FFCEFBCF1
:100200009C9F40F2BAA56FA5F490055A2AF75C931B
:100210006B6CF9676DC11BFCE0E40D47FEF520E651
:10022000B500D0ED902E0300943577050080841E34
:10023000080000204E0A000000C80C333333330F8F
:10024000986E12831141EF8D2114893BE65516CF2C
:10025000FEE6DB18D1844B381BF77C1D901DA4BB38
:10026000E424203284725E228100C9F124ECA1E5ED
:100270003D2700002100240027002A002D00300027
:10028000330001010000040107010A0100002200FF
:10029000250028002B002E00310034000201000050
:1002A000050108010B0100002000230026002900A1
:1002B0002C002F003200000100000301060109019B
:1002C00005050505070508080808020202020A0AD2
:1002D00008080404040401010101010101010303F0
:1002E000030303030303040707070C0C0C0C0C0C9B
:1002F0000C0C0202020206060606060606060B0B98
:100300000B0B0B0B0B0B01021020200808102040D8
:1003100010204080020102010804020101020408C9
:100320001020408080402010080402018004020157
:1003300080402010080402010804020101020408A0
:1003400010204080010204081020408000000A0BA9
:1003500002090C0D0E080703040100000000000054
:10036000000000000000000000000000000000008D
:10037000000000000000000012111000000000004A
:10038000000000000000000000000000000000006D
:1003900000004D1411241FBECFEFD1E2DEBFCDBF50
:1003A00000E00CBF25E0ACEAB3E001C01D92A93328
:1003B000B207E1F713E0A0E0B2E0ECE2FBE300E01B
:1003C0000BBF02C007900D92AC3AB107D9F711E00C
:1003D000CAECD1E000E006C021970109802FFE01A0
:1003E0000E947419C93CD10780E00807A9F70E9450
:1003F000CD110C94941D04CE60E080E20E94B810F0
:1004000060E081E20E94B81060E082E20E94B810D1
:1004100060E083E20E94B81060E084E20E94B810BD
:1004200060E086E20E94B81060E08CE10E94B810A3
:1004300060E08DE10C94B810EF92FF920F931F9340
:10044000CF93DF930E94C60F7C018AE090E00E9468
:10045000C70CEC0108811981B701FF0C880B990BBF
:100460000E94221720E030E040E85AE30E94811702
:1004700020E030E048E453E40E94811722E041E0AC
:100480000E94A714E881F98180E090E02191222365
:1004900029F08A30910511F00196F8CF01979B83DE
:1004A0008A83CE01DF91CF911F910F91FF90EF9042
:1004B00008950F931F93CF93DF930E949010182FEE
:1004C000092F82E090E00E94C70CEC010F931F936C
:1004D00087E492E09F938F9389818F9388818F9394
:1004E0000E94B91A9B838A830F900F900F900F90F0
:1004F0000F900F90CE01DF91CF911F910F91089532
:100500008DE190E0D6CF8CE190E0D3CF86E290E011
:10051000D0CF84E290E0CDCF83E290E0CACF82E2F8
:1005200090E0C7CF81E290E0C4CF80E290E0C1CFFD
:10053000CF93C82F0E949010892B11F060E001C06A
:1005400061E08C2FCF910C94B8108DE190E0F0CF4A
:100550008CE190E0EDCF86E290E0EACF84E290E09B
:10056000E7CF83E290E0E4CF82E290E0E1CF81E266
:1005700090E0DECF80E290E0DBCFCF93DF9388E2A4
:1005800090E00E94C70CEC016AE472E088819981D6
:100590000E94B21A81E290E09B838A83CE01DF91B0
:1005A000CF910895AB01BC018EE694E00C94B80D98
:1005B0002F923F924F925F926F927F928F929F9273
:1005C000AF92BF92CF92DF92EF92FF920F931F9361
:1005D000CF93DF93CDB7DEB72A970FB6F894DEBF7F
:1005E0000FBECDBF8887FB01309709F45BC08081C7
:1005F0009181019709F472C00680F781E02DF4CF54
:100600000115110509F0C4C0F701F081F9834F2EDF
:10061000FF0F5508C2010E941417892B09F477C0F7
:10062000FFEFEF1AFF0A21E0C21AD1082E813F81A5
:100630002E153F0529F74C815D81452B39F08985C1
:100640009A859195819591099A878987E985FA8597
:10065000E619F709FD83EC8361E070E080E090E04B
:100660001E161F060CF0B8C1E0E0F0E0AAE0B0E012
:100670009B01AC010E94381831962C813D812E17C8
:100680003F07A1F70E942217A50194010E9481173C
:100690002A813B81232B09F090580E941E198885DE
:1006A0000E94B81080E090E02A960FB6F894DEBF62
:1006B0000FBECDBFDF91CF911F910F91FF90EF90B3
:1006C000DF90CF90BF90AF909F908F907F906F9072
:1006D0005F904F903F902F900C94C70CC480D580B2
:1006E000E280F380A7014C0D5D1D5F834E83212CBA
:1006F000312C1D821C821A861986612C712C1B825A
:100700001A8200E010E0812C912C54018FCF27E059
:10071000C216D104B8F039813434C1F4F7018181B3
:10072000853459F58281863441F58381813429F5F8
:100730008481853511F585818C34F9F48681843581
:10074000E1F466C1F3E0CF16D10490F029812D3495
:1007500079F4F7018181813421F48281883569F44B
:1007600052C1893451F4F70182818E3431F450C181
:10077000F981FB3281F0FD3271F020E3421A510819
:100780003AE04316510408F021C102E010E00DC028
:100790000130110551F491E080E0F70120812B3206
:1007A00009F490E09A838B833CC1C80102970297B9
:1007B00088F5F7018081482E082E000C5508F0E3DB
:1007C0004F1A51082AE042165104F0F420E030E0BC
:1007D00040E251E4C501B4010E9481174B015C0164
:1007E000B201550C880B990B0E942217A5019401A8
:1007F0000E9452184B015C010330110509F011C130
:100800003FEF631A730A0CCF8E3209F4D6C08536D7
:1008100091F5D6C00430110579F4F70180818B324F
:1008200009F4FECE8D3209F4F7C0082E000C990BA6
:10083000C0970A9720F0CAC005301105C9F4F70126
:100840008081082E000C990BC0978A30910598F48E
:100850006AE049855A85649F9001659F300D112497
:10086000FC01E20FF31FFA87E98705E010E0D8CE1C
:100870000630110559F4F7018081082E000C990B00
:100880000E941417892B09F09EC004C0073011057F
:1008900009F081C0F7012081822F022E000C990BF4
:1008A000AA0BBB0BFC01E354F109E833F10508F096
:1008B0006AC08827EE58FF4F8F4F0C947419298512
:1008C0003A852851310915C049855A854551510944
:1008D0005A87498708E010E0A3CE89859A85429718
:1008E00049C0E985FA853F974BC029853A852C5048
:1008F00031093A872987EECF49855A8549505109F0
:10090000E7CF89859A85069735C0E985FA853397BB
:1009100037C029853A8522503109EBCF49855A8560
:1009200041505109D5CF89859A85019623C0E98523
:10093000FA85329625C029853A852D5F3F4FD9CF5C
:1009400049855A854A5F5F4FC3CF89859A85099645
:1009500011C0E985FA853C9613C029853A85215F47
:100960003F4FC7CF49855A854E5E5F4FB1CF8985CE
:100970009A8545969A878987ADCFE985FA857896D5
:10098000FA87E987A7CF822F220F990B0E94A11A1D
:10099000892B29F41BC00830110509F041CEF7015D
:1009A0008081082E000C990B0E94A31A892B71F0EC
:1009B0002114310471F417010CC003E010E030CEB3
:1009C00004E010E02DCE06E010E02ACE0FEF1FEF7E
:1009D00027CE09E010E024CEEC81FD81309751F064
:1009E000AAE0B0E09B01AC010E9438183196FD836B
:1009F000EC83F2CF0E9422179B01AC01C501B40128
:100A00000E94B61845CE60E070E080E89FE345CED6
:100A100060E070E0CB0141CE81E090E09D838C836B
:100A2000FFCD02E010E0FCCDCF93DF93CDB7DEB772
:100A3000C753D1400FB6F894DEBF0FBECDBFCB5D1C
:100A4000DE4F19821882C552D140CB5DDE4F28811E
:100A50003981C552D140263031050CF4FEC00E94C8
:100A6000C60FBC01990F880B990B0E94221720E03A
:100A700030E040E85AE30E94811720E030E048E48B
:100A800053E40E9481176B017C014B015C0161E022
:100A900081E00E947F0F8DE692E00E946E0F62E07F
:100AA00081E00E947F0FA7019601C701B6010E9455
:100AB0004E19882319F08FE792E01AC026013701FA
:100AC000E89477F82FEF3FEF4FE75FE7C301B201FC
:100AD0000E944E1981110FC02FEF3FEF4FE75FE7E4
:100AE000C301B2010E941C1718162CF483E892E08F
:100AF0000E946E0FADC02FEF3FEF4FE75FE4C701DD
:100B0000B6010E944A1918161CF487E892E0F0CF4B
:100B10002FEF3FEF4FE75FECC701B6010E941C17B4
:100B200087FDF3CF20E030E0A901C701B6010E94A4
:100B30001C1787FF0AC06DE287E195E074D4460177
:100B40005701B7FAB094B7F8B0942AE037ED43EA0A
:100B50005BE3C501B4010E9452184B015C010E9485
:100B60001E196B017C010E9420179B01AC01C5017D
:100B7000B4010E9451184B015C01CF5DDE4F188219
:100B8000C152D14001E011E00C0F1D1F005E1F4F4C
:100B9000C701B6012AE030E040E050E00E9452195F
:100BA00069017A01605DD8016E938D01232B242B9E
:100BB000252B71F7CD010E946E0F6EE287E195E063
:100BC00032D423E0F22EFA94FF2009F441C020E051
:100BD00030E040E251E4C501B4010E9481174B01AD
:100BE0005C010E941E199B0140E050E0CF5DDE4F8A
:100BF0001882C152D14001E011E00C0F1D1F005EB0
:100C00001F4F762EC32ED42EE52ECA01B9012AE03D
:100C100030E040E050E00E945219605DF8016293BC
:100C20008F01211531054105510579F7CF010E944A
:100C30006E0F672D7C2D8D2D9E2D0E9420179B0100
:100C4000AC01C501B4010E9451184B015C01BBCF3E
:100C50008BE892E00E946E0F0EC0CB5DDE4F2881C4
:100C60003981C552D1402F5F3F4FCB5DDE4F398375
:100C70002883C552D14000916A0410916B0401157C
:100C8000110509F1D80112968D919C911397159633
:100C90009C938E9314978C910E949010F8019383EB
:100CA0008283019751F484819581892B31F40680E8
:100CB000F781E02D309709F01995D80118960D911C
:100CC0001C911997DCCFFE013196C75DDE4FF98389
:100CD000E883C952D1408F01E12CF12C2FB7F89451
:100CE00080911B0490911C04A0911D04B0911E04DE
:100CF0002FBF8093760490937704A0937804B093E9
:100D000079048EE694E06DD797FF25C02FB7F8944D
:100D100080911B0490911C04A0911D04B0911E04AD
:100D20002FBF4091760450917704609178047091C0
:100D30007904841B950BA60BB70B4091720450915C
:100D40007304609174047091750484179507A60765
:100D5000B707B8F20EC08A30910559F0D8018D93CB
:100D60008D01BFEFEB1AFB0AE114E1E0FE0609F08A
:100D7000B5CF97013327C95DDE4F39832883C7522A
:100D8000D1408AE0CE5DDE4F8883C252D14021152A
:100D9000310509F45ACE412C512C80E090E0212CF1
:100DA000312C21503109CC5CDE4F39832883C45368
:100DB000D140C75DDE4FA881B981C952D1402D9184
:100DC000C75DDE4FB983A883C952D1402B3351F0A0
:100DD000CC5CDE4FE881F981C453D1402E163F062A
:100DE00009F0B3C18101081B190BCC5CDE4F4881AF
:100DF0005981C453D1402416350621F42B3311F008
:100E00000F5F1F4FC25DDE4F19830883CE52D14062
:100E1000A1E0B0E0AC0FBD1FA80FB91FCD5DDE4F44
:100E2000B983A883C352D140C05DDE4FB983A88384
:100E3000C053D140C45DDE4F19821882CC52D140DC
:100E4000A12CB12C612C712CC12CD12CF801319723
:100E5000CE5CDE4FF983E883C253D1400C151D05EB
:100E600009F478C0C05DDE4FA881B981C053D1407C
:100E7000ED91C05DDE4FB983A883C053D140C55DFD
:100E8000DE4FE883CB52D140EA3361F0E03251F0DB
:100E9000CE5CDE4F28813981C253D1402C153D05EF
:100EA00009F052C04601C45DDE4F48815981CC52E1
:100EB000D140841A950ACE5CDE4F88819981C25355
:100EC000D140C816D90619F49FEF891A990A88E00B
:100ED00090E00E947C197C01DC0111961C921E920C
:100EE000CD5DDE4F88819981C352D140C45DDE4F14
:100EF000E881F981CC52D1408E0F9F1F13969C93AD
:100F00008E93129715969C928E92149717961C9218
:100F10001E921697A114B10431F0D5011796FC92D8
:100F2000EE92169701C03701F6013196C45DDE4F8F
:100F3000F983E883CC52D140C55DDE4FF881CB52B6
:100F4000D140F03211F408C075012FEFC21AD20A55
:100F5000570184CF750101C086010F5F1F4FCD5D22
:100F6000DE4F88809980C352D140800E911ECC24E0
:100F7000CA94DC2CC25DDE4FA880B980CE52D1402D
:100F800031E0A31AB108C25DDE4F48815981CE52CB
:100F9000D1400417150708F042C05FEFC516D5060B
:100FA00051F4D4018C91082E000C990B0E94141757
:100FB000892B09F46801F40181914F018C3219F0F9
:100FC0000A151B0549F588E090E00E947C19FC0198
:100FD00021E030E031832083CD5DDE4F888199812F
:100FE000C352D1408C0D9D1D93838283C8018C19FF
:100FF0009D0995838483178216820A151B0519F4AF
:10100000019695838483D7011796FC93EE931697E8
:101010007F01CC24CA94DC2C0F5F1F4FB4CF00910A
:101020001504109116047301E114F10491F1F70114
:1010300080819181892B69F50115110551F1D70145
:101040001496CD90DC901597F80182819381C81693
:10105000D90651F460817181A60112968D919C91FF
:10106000139750D5892B09F5D80116968D919C912F
:101070001797C816D90609F0CCC014966D917C91CB
:101080001597A601F701828193813CD5892B69F4DC
:10109000C0C080E090E07BD48C01EFEFFFEFDC017B
:1010A0001596FC93EE9314971AC0D7011696ED90FF
:1010B000FC901797E114F10409F09BC0D8011C962D
:1010C000ED91FC911D97309709F09DC080E090E074
:1010D0005ED48C012EEF3FEFFC0135832483011594
:1010E000110559F480E090E052D48C01ECEFFFEF51
:1010F000DC011596FC93EE9314976114710459F07A
:10110000D3011696EC9016971796FC90C3010E9497
:10111000141A3701F2CF4114510449F0CA5CDE4F72
:10112000E881F981C653D1401783068301C02801A5
:10113000D80117961C921E921697C1010196CA5C9F
:10114000DE4F19830883C653D140BFEF2B1A3B0AE9
:10115000C95DDE4FE881F981C752D140E215F30540
:1011600009F027CEF20180E090E0309749F022812B
:101170003381232B09F001960680F781E02DF5CF0E
:10118000892B39F18BE3CF5FDE4F8883C150D1408B
:10119000820101151105E9F0D80112966D917C913B
:1011A00013978D919C91FED9F8018681978161E01A
:1011B00070E0892B21F0CE018F5F9E4F03C0CE01DE
:1011C0008E5D9E4FEFD9D80116960D911C91179701
:1011D000E0CF4114510409F438CCF20106811781A3
:1011E000808191810E94141AC2010E94141A280160
:1011F000F0CFD7018D919C91892B09F05FCFF80139
:101200000285138511CFB30185E194E019958C0116
:1012100066CFF801008511850FCF80E090E0892B23
:1012200041F080E090E0892B21F00E9400008111C4
:1012300020C080E090E0892B19F001D581111CC0FD
:1012400080E090E0892B41F080E090E0892B21F054
:101250000E940000811113C080E090E0892BA1F072
:1012600080E090E0892B81F00E94000081110AC08B
:1012700008950E940000DDCF0E940000E1CF0E948F
:101280000000EACF0C940000089585ED8093BC0027
:101290008091BC0084FDFCCF1092450408954091DC
:1012A000F003262F30E0240F311D21323105DCF40C
:1012B000209145042430C9F4FC0180E090E08617B9
:1012C00058F43091F0032191DC01A253BC4FA30FDD
:1012D000B11D2C930196F3CF8091F003680F6093BA
:1012E000F00380E0089581E0089582E00895089574
:1012F00008950895E091CD038091CC03E81730F470
:10130000F0E0E455FC4F808190E008958FEF9FEF6F
:1013100008959091CD038091CC03981750F4E92F54
:10132000F0E0E455FC4F208130E09F5F9093CD03C7
:1013300002C02FEF3FEFC90108958091CC0390E0E8
:101340002091CD03821B91090895CF92DF92EF92F5
:10135000FF920F931F93CF93DF937C01CB018A0100
:1013600020914604222389F0EB016B01C40ED51EA7
:10137000CC15DD0561F06991D701ED91FC910190EB
:10138000F081E02DC7011995F3CF642F88DFC801E4
:10139000DF91CF911F910F91FF90EF90DF90CF9051
:1013A0000895CF93DF931F92CDB7DEB76983209165
:1013B00046042223D1F020916904203240F021E03C
:1013C00030E0FC013383228380E090E014C0809100
:1013D0004704E82FF0E0E85BFB4F998190838F5F33
:1013E000809347048093690404C061E0CE010196B4
:1013F00056DF81E090E00F90DF91CF91089521E0DA
:1014000001C0220F6A95EAF7DC011C962C931C9709
:101410001A965C934E931997ED91FC910484F5858F
:10142000E02D60E01994DC01ED91FC910684F785D4
:10143000E02D41E0199581E090E008950895089528
:10144000089580E090E008950F931F93CF93DF936A
:10145000062F0F70423019F440E0602F0DC0142F9A
:10146000EC0170E084E0759567958A95E1F7CE010F
:1014700029D6412F602FCE01DF91CF911F910F917F
:1014800021C6FC0184858823A1F0218532852115A0
:10149000310519F4611106C007C02130310521F46E
:1014A000611102C0858701C015866585CF010E9642
:1014B000E6C508958DE190E07BC88CE190E078C8A6
:1014C00086E290E075C884E290E072C883E290E022
:1014D0006FC882E290E06CC881E290E069C880E267
:1014E00090E066C81F920F920FB60F9211240BB6B0
:1014F0000F922F933F934F935F936F937F938F93AD
:101500009F93AF93BF93EF93FF938091B900887F30
:10151000803609F49CC068F5883209F45BC090F409
:10152000803109F454C038F4882309F4F6C08830B7
:1015300009F44DC0F5C0883109F44CC0803209F47B
:101540005DC0EEC0803409F468C048F4803309F40B
:1015500055C0883309F0E4C080934304D8C0803577
:1015600009F44FC0883509F45DC0883409F0D8C04B
:10157000D6C0883909F4C7C0A8F4883709F467C011
:1015800038F4883609F463C0803709F460C0C8C0F5
:10159000883809F4B8C0803909F45FC0803809F090
:1015A000BFC05BC0803B09F486C038F4803A09F4C0
:1015B00066C0883A09F47FC0B3C0803C09F4A7C074
:1015C000883C09F4A4C0883B09F48AC0A9C0809172
:1015D000200410C09091420480914104981770F546
:1015E000E091420481E08E0F80934204F0E0EF5DD1
:1015F000FB4F80818093BB0085EC86C080934304C1
:101600008EC0E091420481E08E0F8093420480916D
:10161000BB00F0E0EF5DFB4F80839091420480912E
:1016200041046EC0E091420481E08E0F8093420439
:101630008091BB00F0E0EF5DFB4F8083809144041C
:1016400081116DC081E080931F0484EA61C083E052
:101650008093450410921404CFCF809114048032FB
:1016600008F051C0E091140481E08E0F80931404BF
:101670008091BB00F0E0EC50FC4F8083BDCF85EC47
:101680008093BC001092450480911404803230F4A1
:10169000E0911404F0E0EC50FC4F108260911404CF
:1016A00070E0E091F203F091F30384EF93E0199579
:1016B0001092140435C084E0809345041092F10325
:1016C0001092F003E091EE03F091EF0319958091F1
:1016D000F003811105C081E08093F0031092CE03E6
:1016E000E091F10381E08E0F8093F103F0E0E2538B
:1016F000FC4F80818093BB009091F1038091F003B7
:10170000981708F479CF85E88093BC0009C085EC70
:101710008093BC001092450403C010924304B5DDD1
:10172000FF91EF91BF91AF919F918F917F916F91B9
:101730005F914F913F912F910F900BBE0F900FBE75
:101740000F901F901895DC01ED91FC910684F785B0
:10175000E02D40E019948F929F92AF92BF92CF926A
:10176000DF92EF92FF920F931F93CF93DF93EC01E1
:10177000423018F08C8188608C834F8368872223E5
:1017800029F0413019F48C8184608C8397D56B01EA
:101790007C0184E6882E912CA12CB12C8FD5DC0104
:1017A000CB018C199D09AE09BF09883E9340A10564
:1017B000B105A0F321E0821A9108A108B10888EED2
:1017C000C80E83E0D81EE11CF11C81149104A10411
:1017D000B10421F76C8164FD31C0E881F981068490
:1017E000F785E02D42E063E0CE0119958BE496E4A5
:1017F0000197F1F7E881F9810684F785E02D42E051
:1018000063E0CE01199503E512E0C8010197F1F7F5
:10181000E881F9810684F785E02D42E063E0CE019E
:101820001995C8010197F1F7E881F9810684F785D8
:10183000E02D42E062E0CE01199514C06062CE0155
:1018400082DF8BE496E40197F1F76C816062CE0150
:101850007ADF03E512E0C8010197F1F76C8160625D
:10186000CE0171DFC8010197F1F76C816062CE0192
:101870006ADF8BEE90E00197F1F784E08D836CE0F6
:10188000CE0161DF61E0CE015EDF8BE39FE1019776
:10189000F1F782E08E8366E0CE0155DFE881F981C1
:1018A0000484F585E02D6FEFCE01DF91CF911F917C
:1018B0000F91FF90EF90DF90CF90BF90AF909F90EF
:1018C0008F901994EF92FF920F931F93CF93DF9312
:1018D000EC01062FF42EE22E8B85888B1092CD031F
:1018E0001092CC03109247041092690410924504A0
:1018F00011E01093440410921F0461E084E138D495
:1019000061E085E135D48091B9008E7F8093B90084
:101910008091B9008D7F8093B90088E48093B800EE
:1019200085E48093BC0087E799E09093EF03809370
:10193000EE0388E799E09093F3038093F20388899C
:10194000109346048093680410924704109269042F
:101950003AD391E0811190E0998B811104C08BE022
:1019600095E0D7DC8E878989882331F01F861C8219
:1019700060E0CE010E9683D32E2D4F2D602FCE0129
:10198000DF91CF911F910F91FF90EF90E4CE0F93D5
:101990001F93CF93DF938C0188E090E00E947C1925
:1019A000EC011D821C821F821E820115110529F483
:1019B000198218821B821A8207C0C8010E947C19F2
:1019C000998388831B830A83CE01DF91CF911F9176
:1019D0000F9108950F931F93CF93DF93EC0180E055
:1019E00090E0D5DF8C01DC0115961C921E921497B5
:1019F000EA81FB813097A9F488E090E00E947C198D
:101A0000EC0189E090E00E947C199B838A8366E95F
:101A100072E00E94B21A88E090E09D838C83FE0100
:101A200008C0868197819B838A83892B11F41D824C
:101A30001C8282819381D80111969C938E9384811C
:101A4000958113969C938E931297CF010E94141A3E
:101A5000C801DF91CF911F910F9108956F927F92EE
:101A60008F929F92AF92BF92CF92DF92EF92FF92AE
:101A70000F931F93CF93DF93EC015A01390161302B
:101A8000710519F48A849B8401C04C01811491046E
:101A900041F48EE090E00E947C19FC019B878A87CC
:101AA00013C0D40118968D919C911997009711F04D
:101AB0004C01F7CF8EE090E00E947C19FC01D4012C
:101AC00019969C938E93189711861086138612860A
:101AD000B182A0827382628215830483F782E682D8
:101AE000D586C486CF01DF91CF911F910F91FF90D2
:101AF000EF90DF90CF90BF90AF909F908F907F90AE
:101B00006F900895AF92BF92CF92DF92EF92FF92C3
:101B10000F931F93CF93DF937C015A01EB018C014C
:101B2000C8018E199F098A159B05ACF4F8018191B3
:101B30008F01082E000C990B0E94AA1A6C01899142
:101B4000082E000C990B0E94AA1AC816D90641F358
:101B500080E090E002C081E090E0DF91CF911F91A2
:101B60000F91FF90EF90DF90CF90BF90AF900895CE
:101B7000CF92DF92EF92FF920F931F93CF93DF9359
:101B80006C017A018B01C0E0D0E0CE15DF0581F059
:101B9000D8016D918D01D601ED91FC910190F081FC
:101BA000E02DC6011995892B11F02196EECF7E010B
:101BB000C701DF91CF911F910F91FF90EF90DF90C0
:101BC000CF900895FC01538D448D252F30E0842F54
:101BD00090E0821B930B541710F0CF960895019755
:101BE0000895FC01918D828D981761F0828DDF013F
:101BF000A80FB11D5D968C91928D9F5F9F73928F00
:101C000090E008958FEF9FEF0895FC01918D828DF4
:101C1000981731F0828DE80FF11D858D90E00895C1
:101C20008FEF9FEF0895FC01918D228D892F90E019
:101C3000805C9F4F821B91098F73992708958EE6D0
:101C400094E0F1DF21E0892B09F420E0822F089550
:101C5000FC01848DDF01A80FB11DA35ABF4F2C9149
:101C6000848D90E001968F739927848FA689B78918
:101C70002C93A089B1898C91837080648C93938D0F
:101C8000848D981306C00288F389E02D80818F7DB2
:101C900080830895EF92FF920F931F93CF93DF936A
:101CA000EC0181E0888F9B8D8C8D981305C0E889AD
:101CB000F989808185FD25C0F62E0B8D10E00F5F20
:101CC0001F4F0F731127E02E8C8DE8120BC00FB63B
:101CD00007FCFACFE889F989808185FFF5CFCE012D
:101CE000B7DFF2CF8B8DFE01E80FF11DE35AFF4FF6
:101CF000F0829FB7F8940B8FEA89FB89808180621C
:101D00000AC09FB7F894EE89FF896083E889F98952
:101D100080818370806480839FBF81E090E0DF9149
:101D2000CF911F910F91FF90EF900895CF93DF9384
:101D3000EC01888D8823C1F0EA89FB89808185FDCB
:101D400005C0A889B9898C9186FD0EC00FB607FC25
:101D5000F5CF808185FFF2CFA889B9898C9185FF65
:101D6000EDCFCE0175DFE8CFDF91CF9108950E94CE
:101D70009D1A1F920F920FB60F9211240BB60F925D
:101D80002F933F934F935F936F937F938F939F9383
:101D9000AF93BF93EF93FF938EE694E059DFFF91EB
:101DA000EF91BF91AF919F918F917F916F915F91D3
:101DB0004F913F912F910F900BBE0F900FBE0F9040
:101DC0001F9018951F920F920FB60F9211240BB609
:101DD0000F922F938F939F93EF93FF93E0917E0445
:101DE000F0917F048081E0918404F091850482FD6C
:101DF00012C09081809187048F5F8F732091880437
:101E0000821751F0E0918704F0E0E259FB4F958F83
:101E10008093870401C08081FF91EF919F918F9102
:101E20002F910F900BBE0F900FBE0F901F90189523
:101E300090E0FC013197E231F10508F04EC08827AF
:101E4000E655FF4F8F4F0C947419809180008F7767
:101E500003C0809180008F7D8093800008958091E1
:101E60008000877FF9CF84B58F7702C084B58F7DDE
:101E700084BD08958091B0008F7703C08091B00039
:101E80008F7D8093B0000895809190008F7707C078
:101E9000809190008F7D03C080919000877F809318
:101EA000900008958091A0008F7707C08091A000D6
:101EB0008F7D03C08091A000877F8093A00008954C
:101EC000809120018F7707C0809120018F7D03C012
:101ED00080912001877F809320010895009761F011
:101EE000FC0101900020E9F73197AF01481B590B25
:101EF000BC0187E195E03CCE80E090E008950F932F
:101F00001F93CF93DF93CDB7DEB728970FB6F89422
:101F1000DEBF0FBECDBF00910702109108022091D5
:101F2000090230910A020D831E832F8338870091A6
:101F30000B0210910C0220910D0230910E020983C8
:101F40001A832B833C8390911E05691710F06FEF65
:101F5000690F40911F05262F30E0FE01E20FF31FAD
:101F6000403121F4943011F4618101C06581680F22
:101F7000606887E195E028960FB6F894DEBF0FBE43
:101F8000CDBFDF91CF911F910F91DDCB80917B0071
:101F9000877F80937B008091000220E4829FC001B4
:101FA000112480937C0080917A00806480937A0071
:101FB00080917A0086FDFCCF809178002091790095
:101FC00090E0922B089530916904313208F04BC0B3
:101FD000809145048111FCCF9091680422E0209308
:101FE000450421E0209344042FEF209343041092F2
:101FF000420430934104E8E4F4E0A1E2B4E020E0DC
:10200000321721F041914D932F5FFACF10922004A7
:1020100020912004990F922B9093200490911F04FB
:10202000913061F410921F04909120049093BB00B2
:102030009091BC0093FDF8CF95EC01C095EE909384
:10204000BC00909145049230E1F3909143049F3F8E
:1020500079F080914304803241F0809143048033D1
:1020600031F084E005C081E003C082E001C083E07C
:102070001092470410926904109246040895FC01DE
:1020800083818823B1F0962F6181609569236083F5
:10209000828191E0909346048093680410924704F3
:1020A000109269048BE095E07CD98DDF282F30E019
:1020B00002C020E030E081E090E0232B11F080E0CE
:1020C00090E00895EF92FF920F931F93CF938C01AE
:1020D000FC0184E0C0E060FF02C09589C92B6695D1
:1020E000815031968111F7CF413011F4F8014489C4
:1020F000F8018585C82BC42B7801FEE0EF0EF11C9A
:10210000F80162896C2BC701BADFF801628960951A
:102110006C23C701CF911F910F91FF90EF90AFCF2C
:10212000CF93DF93282F30E0F901E45BFC4F8491DB
:10213000F901EA5FFC4FD491F901E054FD4FC491DD
:10214000CC2389F0811174DEEC2FF0E0EE0FFF1F3D
:10215000EA55FD4FA591B491EC91ED2381E090E01B
:1021600021F480E002C080E090E0DF91CF910895FB
:102170001F93CF93DF93282F30E0F901E45BFC4FEE
:102180008491F901EA5FFC4FD491F901E054FD4FCD
:10219000C491CC23B9F0162F81114ADEEC2FF0E068
:1021A000EE0FFF1FE457FD4FA591B4919FB7F89430
:1021B000111104C08C91D095D82302C0EC91DE2B74
:1021C000DC939FBFDF91CF911F910895CF93DF9351
:1021D00090E0FC01EA5FFC4F2491FC01E054FD4FCC
:1021E0008491882361F190E0880F991FFC01EE58DB
:1021F000FD4FC591D491FC01E457FD4FA591B491D9
:10220000611109C09FB7F894888120958223888343
:10221000EC912E230BC0623061F49FB7F894888153
:10222000322F309583238883EC912E2B2C939FBFE4
:1022300006C08FB7F894E8812E2B28838FBFDF91DB
:10224000CF910895EF92FF920F931F93CF93DF9357
:10225000182F092F7B018AE090E00E947C19EC0185
:102260001986188618830983FF82EE8262E0812F27
:10227000ADDF812F55DF9D838C839B838A83809183
:102280006A0490916B04892B31F0E0916C04F09119
:102290006D04309729F4D0936B04C0936A0402C094
:1022A000D187C087D0936D04C0936C04CE01DF91B9
:1022B000CF911F910F91FF90EF9008953FB7F89441
:1022C0008091310590913205A0913305B09134058C
:1022D00026B5A89B05C02F3F19F00196A11DB11D81
:1022E0003FBFBA2FA92F982F8827820F911DA11DBC
:1022F000B11DBC01CD0142E0660F771F881F991FF9
:102300004A95D1F708951F920F920FB60F9211249C
:102310002F933F938F939F93AF93BF9380911B0411
:1023200090911C04A0911D04B0911E0430913005C1
:1023300023E0230F2D3720F40196A11DB11D05C008
:1023400026E8230F0296A11DB11D2093300580932E
:102350001B0490931C04A0931D04B0931E04809151
:10236000310590913205A0913305B0913405019665
:10237000A11DB11D8093310590933205A0933305C3
:10238000B0933405BF91AF919F918F913F912F9161
:102390000F900FBE0F901F901895789484B58260AF
:1023A00084BD84B5816084BD85B5826085BD85B5F9
:1023B000816085BDEEE6F0E0808181608083E1E8A8
:1023C000F0E01082808182608083808181608083E0
:1023D000E0E8F0E0808181608083E1EBF0E08081E3
:1023E00084608083E0EBF0E0808181608083E1E9BC
:1023F000F0E0808182608083808181608083E0E979
:10240000F0E0808181608083E1EAF0E08081826099
:102410008083808181608083E0EAF0E08081816058
:102420008083E1E2F1E0808182608083808181604D
:102430008083E0E2F1E0808181608083EAE7F0E080
:1024400080818460808380818260808380818160DC
:1024500080838081806880831092C10020E044E006
:1024600064E187E195E02EDA40E050E063E087E147
:1024700095E00E94FF0961E087E195E002D861E004
:1024800087E195E060D98BE39FE10197F1F761E087
:1024900083E035DD8FE992E021DD81E08093000269
:1024A00061E080E293DE61E081E290DE61E082E261
:1024B0008DDE61E083E28ADE61E084E287DE61E056
:1024C00086E284DE61E08CE181DE61E08DE17EDE2A
:1024D00061E087E27BDE61E088E278DE60E087E24F
:1024E00047DE60E088E244DE10926B0410926A04DA
:1024F0006AEB72E08DE290E0A5DE67EB72E081E3CB
:1025000090E0A0DE64EB72E080E390E09BDE61EBA4
:1025100072E081E190E096DE6EEA72E087E190E0A1
:1025200091DE6BEA72E080E190E08CDE68EA72E0B6
:102530008FE290E087DE65EA72E08EE290E082DE74
:102540006CEF71E086E090E07DDE8EE090E0D4D626
:10255000FC01C5E1D4E09983888311821082138243
:1025600012821582148217821682158614861186AD
:10257000108613861286C12CD12C84E0E82EF12C13
:102580000BEA12E026E030E040EB52E061E070E060
:10259000CF0164DA5C0193E0E92EF12C07EB12E045
:1025A00025E030E04BEB52E061E070E0C50156DA27
:1025B0004C012AEEC22E2CE0D22E34E0E32EF12C78
:1025C00001EC12E026E030E046EC52E061E070E021
:1025D000C50144DA45E0E42EF12C0DEC12E025E0D3
:1025E00030E0A80161E070E0C40138DA1B821A8291
:1025F0001D821C825DEBC52E52E0D52E03ED12E04C
:1026000025E030E0A80160E070E08881998126DA59
:1026100065E9C62E62E0D62E73E0E72EF12C09EDB7
:1026200012E027E030E04DED52E061E070E088819B
:10263000998114DAE2E9CE2EE2E0DE2E05EE12E018
:1026400027E030E049EE52E061E070E08881998156
:1026500005DAFFE8CF2EF2E0DF2E01EF12E027E0EF
:1026600030E045EF52E061E070E088819981F6D971
:10267000ACE8CA2EA2E0DA2E0DEF12E027E030E03F
:1026800041E053E061E070E088819981E7D9B9E8E1
:10269000CB2EB2E0DB2E09E013E027E030E04DE086
:1026A00053E061E070E088819981D8D916E8C12EA5
:1026B00012E0D12E05E113E027E030E049E153E0DC
:1026C00061E070E088819981C9D90FE6C02E0AE0E7
:1026D000D02E82E0E82EF12C01E213E026E030E07B
:1026E00044E253E061E070E088819981B7D99CE6CB
:1026F000C92E9AE0D92E0BE213E026E030E04EE23C
:1027000053E061E070E088819981A8D929E6C22E62
:102710002AE0D22E05E313E026E030E048E353E060
:1027200061E070E08881998199D936E6C32E3AE05C
:10273000D32E0FE313E026E030E042E453E061E003
:1027400070E0888199818AD943E6C42E4AE0D42E6C
:1027500009E413E026E030E04CE453E061E070E08F
:10276000888199817BD950E6C52E5AE0D52E03E5A4
:1027700013E026E030E046E553E061E070E0888158
:1027800099816CD963E8C62E62E0D62E74E0E72EFC
:10279000F12C0DE513E02DE030E042E653E061E07E
:1027A00070E0888199815AD9EDE5CE2EEAE0DE2EDF
:1027B000F3E0EF2EF12C00E713E02CE030E044E7EB
:1027C00053E061E070E08881998148D9A0E8CA2E81
:1027D000A2E0DA2EB5E0EB2EF12C01E813E027E0C1
:1027E00030E047E853E061E070E08881998136D9B4
:1027F0001AE5C12E1AE0D12E04E0E02EF12C0FE8EC
:1028000013E026E030E044E953E061E070E08881C5
:10281000998124D98CE1C82E82E0D82E95E0E92E4A
:10282000F12C0BE913E029E030E041EA53E061E0EC
:1028300070E08881998112D9EEE6F4E082E390E0BD
:10284000A0E0B0E084839583A683B783A089B18993
:1028500082E08C93A485B5851C92A685B7858FEC04
:102860008C93108EA489B58986E08C93A289B38954
:102870008C9180618C93A289B3898C9188608C93B0
:10288000A289B3898C9180688C930288F389E02DAA
:1028900080818F7D80830E941405EEE6F4E0138230
:1028A000128288EE93E0A0E0B0E084839583A68353
:1028B000B78323E132E0318320832DEC30E035878C
:1028C00024872CEC30E03787268728EC30E0318BEA
:1028D000208B29EC30E0338B228B2AEC30E0358BD7
:1028E000248B2EEC30E0378B268B118E128E138EBC
:1028F000148EEBE0F5E01382128284839583A68325
:10290000B78385E292E091838083E7E1F5E013826B
:10291000128287E392E091838083108A8FEF87870A
:102920001686118A87E28387148615861286118699
:1029300084E0828B82E0838B81E0848B80E1858BD5
:1029400080E2868B80E4878B80E8808F0895EF9209
:102950000F931F93CF93DF93E80147FD02C034E04C
:1029600001C034E1042E000C550B57FF03C05195F4
:1029700041955109E32E022F242FAE0107D0CE013D
:10298000DF91CF911F910F91EF9008958F929F92B9
:10299000AF92BF92CF92DF92EF92FF920F931F936D
:1029A000CF93DF93CDB7DEB729970FB6F894DEBF8C
:1029B0000FBECDBF6A01122FB02E2BE3201720F0DF
:1029C000FF24F394F00E02C02CE3F22E0F2D27E02B
:1029D000AE014F5F5F4F50D1BC014981842F897098
:1029E000813031F0E1FC06C0E0FE06C090E205C097
:1029F0009DE203C09BE201C090E05E2D507143FF59
:102A00003CC0911102C083E001C084E0811718F43A
:102A1000212F281B01C020E051110BC0F601822F8D
:102A200030E2882319F031938150FBCFC20ED11CC4
:102A300020E0992329F0D6019C93F60131966F018D
:102A4000C6010396E2FE0AC03EE4D6013C9341E48F
:102A500011964C93119712963C9306C03EE6F601F0
:102A6000308341E641833283FC01322F40E233233D
:102A700009F442C041933150FACF42FF44C0911152
:102A800002C083E001C084E0811718F4212F281BC5
:102A900001C020E051110BC0F601822F30E28823E3
:102AA00019F031938150FBCFC20ED11C20E0992345
:102AB00029F0D6019C93F60131966F01C601039669
:102AC000E2FE0BC039E4D6013C933EE411963C9300
:102AD000119736E412963C9307C039E6F60130832D
:102AE0003EE6318336E63283FC01322F40E2332367
:102AF00019F041933150FBCFFC01E20FF11D108220
:102B00008EEF9FEFA6C021E030E0911102C020E0DF
:102B100030E0161617061CF4FB01319602C0E1E006
:102B2000F0E02E0F3F1FBB2021F0EB2DF0E031969F
:102B300002C0E0E0F0E02E0F3F1FE12FF0E02E1783
:102B40003F071CF4121B212F01C020E08E2D88713D
:102B500059F4F601822F30E2882319F03193815025
:102B6000FBCFC20ED11C20E0992329F0D6019C9303
:102B7000F60131966F0151110BC0F601822F90E3DF
:102B8000882319F091938150FBCFC20ED11C20E015
:102B90000F2D060F9A81342F307144FF03C09133FB
:102BA00009F40150101624F4093018F008E001C0AF
:102BB00001E0AB0177FF02C040E050E0FB01E41B05
:102BC000F50BA1E0B0E0AC0FBD1FEA0FFB1F8EE2DA
:102BD000A82E4B01801A91080B2D10E0119501953C
:102BE00011094F3FBFEF5B0721F4D601AC9211965C
:102BF0006D01641775072CF08416950614F4818115
:102C000001C080E3415051093196D60111967D01F2
:102C10004017510724F0D6018C936701E2CF641767
:102C2000750739F4963320F4953319F4311101C046
:102C300081E3F6018083F701822F90E2882319F067
:102C400091938150FBCFF701E20FF11D108280E0DC
:102C500090E029960FB6F894DEBF0FBECDBFDF918E
:102C6000CF911F910F91FF90EF90DF90CF90BF9089
:102C7000AF909F908F900895283008F027E0332779
:102C8000DA01990F311D87FD91600096610571058C
:102C900039F432602E5F3D9330E32A95E1F70895D1
:102CA0009F3F30F080387105610509F03C5F3C5F63
:102CB0003D93913008F08068911DDF93CF931F936F
:102CC0000F93FF92EF92192F987F9695E92F969583
:102CD0009695E90FFF27EE52FE4F99273327EE24F2
:102CE000FF24A701E70105900894079428F4360F04
:102CF000E71EF81E491F511D660F771F881F991F79
:102D00000694A1F70590079428F4E70EF81E491FD2
:102D1000561FC11D770F881F991F661F0694A1F7C4
:102D20000590079428F4F80E491F561FC71FD11DA0
:102D3000880F991F661F771F0694A1F705900794C7
:102D400020F4490F561FC71FD81F990F661F771F02
:102D5000881F0694A9F784911095177041F0D695B5
:102D6000C79557954795F794E7941A95C1F7E8E703
:102D7000F1E06894159015913591659195910590C4
:102D80007FE27395E118F10A430B560BC90BD0098A
:102D9000C0F7E10CF11E431F561FC91FD01D7EF462
:102DA000703311F48A95E6CFE894015030F0080FA3
:102DB0000AF40027021708F4202F2395022F7A33F4
:102DC00028F079E37D932A95E9F710C07D932A9541
:102DD00089F6069497956795379517951794E11896
:102DE000F10A430B560BC90BD00998F023957E913D
:102DF00073957A3308F070E37C932013B8F77E91D3
:102E000070617D9330F0839571E37D9370E32A9533
:102E1000E1F71124EF90FF900F911F91CF91DF9177
:102E2000992787FD909508959111CEC0803219F0B1
:102E300089508550D0F7089540D008F481E0089576
:102E4000E89409C097FB3EF4909580957095619544
:102E50007F4F8F4F9F4F9923A9F0F92F96E9BB27FA
:102E60009395F695879577956795B795F111F8CF76
:102E7000FAF4BB0F11F460FF1BC06F5F7F4F8F4FE1
:102E80009F4F16C0882311F096E911C0772321F0D7
:102E90009EE8872F762F05C0662371F096E8862F6F
:102EA00070E060E02AF09A95660F771F881FDAF7C6
:102EB000880F9695879597F90895990F0008550FF3
:102EC000AA0BE0E8FEEF16161706E807F907C0F0B0
:102ED00012161306E407F50798F0621B730B840BB8
:102EE000950B39F40A2661F0232B242B252B21F492
:102EF00008950A2609F4A140A6958FEF811D811D32
:102F000008950BD07BC06CD028F071D018F09523B9
:102F100009F05DC062C01124A5C081D0A0F3959FC7
:102F2000D1F3950F50E0551F629FF001729FBB27B0
:102F3000F00DB11D639FAA27F00DB11DAA1F649F5C
:102F40006627B00DA11D661F829F2227B00DA11D0F
:102F5000621F739FB00DA11D621F839FA00D611D95
:102F6000221F749F3327A00D611D231F849F600DB6
:102F7000211D822F762F6A2F11249F5750408AF0EF
:102F8000E1F088234AF0EE0FFF1FBB1F661F771F7B
:102F9000881F91505040A9F79E3F510570F017C00F
:102FA00061C05F3FECF3983EDCF3869577956795BB
:102FB000B795F795E7959F5FC1F7FE2B880F911D99
:102FC0009695879597F9089599278827089597F9F1
:102FD0009F6780E870E060E008959FEF80EC0895BF
:102FE00000240A94161617061806090608950024E8
:102FF0000A9412161306140605060895092E039462
:10300000000C11F4882352F0BB0F40F4BF2B11F4D5
:1030100060FF04C06F5F7F4F8F4F9F4F089557FD34
:103020009058440F551F59F05F3F71F04795880F36
:1030300097FB991F61F09F3F79F0879508951216CD
:1030400013061406551FF2CF4695F1DF08C0161679
:1030500017061806991FF1CF86957105610508942A
:103060000895E894BB2766277727CB0197F9089541
:1030700009D0A59F900DB49F900DA49F800D911D28
:1030800011240895A29FB001B39FC001A39F700DAA
:10309000811D1124911DB29F700D811D1124911D60
:1030A00008955058BB27AA270ED0A8CF99DF30F03B
:1030B0009EDF20F031F49F3F11F41EF48ECF0EF40A
:1030C000E095E7FB84CFE92FAADF80F3BA17620708
:1030D00073078407950718F071F49EF5C2CF0EF4BC
:1030E000E0950B2EBA2FA02D0B01B90190010C0118
:1030F000CA01A0011124FF27591B99F0593F50F430
:10310000503E68F11A16F040A22F232F342F442787
:10311000585FF3CF469537952795A795F04053957F
:10312000C9F77EF41F16BA0B620B730B840BBAF04F
:103130009150A1F0FF0FBB1F661F771F881FC2F7BA
:103140000EC0BA0F621F731F841F48F487957795CE
:103150006795B795F7959E3F08F0B3CF9395880F85
:1031600008F09927EE0F9795879508950CD046CFD4
:103170003EDF40F035DF30F021F45F3F19F027CF1C
:10318000511170CF2ACF4BDF98F39923C9F3552300
:10319000B1F3951B550BBB27AA276217730784074A
:1031A00038F09F5F5F4F220F331F441FAA1FA9F300
:1031B00033D00E2E3AF0E0E830D091505040E695F2
:1031C000001CCAF729D0FE2F27D0660F771F881F53
:1031D000BB1F261737074807AB07B0E809F0BB0B42
:1031E000802DBF01FF2793585F4F2AF09E3F510566
:1031F00068F0EDCE37CF5F3FECF3983EDCF3869579
:1032000077956795B795F7959F5FC9F7880F911DDB
:103210009695879597F90895E1E0660F771F881FC7
:10322000BB1F621773078407BA0720F0621B730B7A
:10323000840BBA0BEE1F88F7E0950895F8DE88F04E
:103240009F5790F0B92F9927B751A0F0D1F0660F92
:10325000771F881F991F1AF0BA95C9F712C0B130AD
:1032600081F0FFDEB1E00895FCCE672F782F88272C
:10327000B85F39F0B93FCCF3869577956795B395EC
:10328000D9F73EF490958095709561957F4F8F4F5B
:103290009F4F089512DE08F48FEF08950EDE880B1D
:1032A000990B0895A1E21A2EAA1BBB1BFD010DC0AC
:1032B000AA1FBB1FEE1FFF1FA217B307E407F507E6
:1032C00020F0A21BB30BE40BF50B661F771F881FC2
:1032D000991F1A9469F760957095809590959B0158
:1032E000AC01BD01CF010895EE0FFF1F881F8BBFFA
:1032F0000790F691E02D19940F931F93CF93DF93CE
:103300008230910510F482E090E0E0913705F09171
:10331000380520E030E0A0E0B0E0309719F14081BE
:1033200051810281138148175907C8F08417950706
:1033300069F4109731F012960C93129713961C9320
:1033400027C0009337051093380522C02115310599
:1033500019F04217530718F49A01BD01EF01DF017C
:10336000F801DBCF21153105F9F0281B390B24308A
:10337000310580F48A819B816115710521F0FB0183
:103380009383828304C09093380580933705FE01B0
:10339000329644C0FE01E20FF31F819391932250B5
:1033A0003109398328833AC020913505309136059B
:1033B000232B41F42091030230910402309336050F
:1033C000209335052091010230910202211531052B
:1033D00041F42DB73EB74091050250910602241BDF
:1033E000350BE0913505F0913605E217F307A0F4AF
:1033F0002E1B3F0B2817390778F0AC014E5F5F4F4B
:103400002417350748F04E0F5F1F50933605409341
:1034100035058193919302C0E0E0F0E0CF01DF91A8
:10342000CF911F910F910895CF93DF93009709F4E7
:1034300081C0FC01329713821282A0913705B091AE
:103440003805109781F420813181820F931F2091DC
:103450003505309136052817390751F5F0933605B3
:10346000E093350567C0ED0120E030E0CE17DF07BF
:1034700040F44A815B819E0141155105F1F0EA015A
:10348000F5CFD383C28340815181840F951FC81724
:10349000D90759F488819981840F951F02969183E9
:1034A00080838A819B81938382832115310529F44E
:1034B000F0933805E09337053DC0E901FB83EA83CB
:1034C00049915991C40FD51FEC17FD0761F4808114
:1034D0009181840F951F0296E901998388838281E7
:1034E00093819B838A83E0E0F0E012968D919C911A
:1034F0001397009719F0FD01DC01F7CF8D919C9196
:1035000011979D012E5F3F4F820F931F209135052C
:10351000309136052817390769F4309729F410924D
:1035200038051092370502C013821282B093360517
:10353000A0933505DF91CF91089581E090E0F89454
:10354000F3C285FD41CD806291113ECD81568A51F5
:10355000E0F708959111089581568A5108F4805238
:1035600085580895FB01DC0101900D920020E1F7E0
:1035700008950F931F93CF93DF93CDB7DEB72E97A8
:103580000FB6F894DEBF0FBECDBF0E891F8986E04F
:103590008C831A8309838FEF9FE79E838D83AE010F
:1035A000465E5F4F688D798DCE01019610D0EF8118
:1035B000F885E00FF11F10822E960FB6F894DEBF4B
:1035C0000FBECDBFDF91CF911F910F9108952F9224
:1035D0003F924F925F926F927F928F929F92AF92A3
:1035E000BF92CF92DF92EF92FF920F931F93CF93F0
:1035F000DF93CDB7DEB72B970FB6F894DEBF0FBEC3
:10360000CDBF6C017B018A01FC0117821682838188
:1036100081FFBFC1CE0101963C01F6019381F70104
:1036200093FD859193FF81917F01882309F4ADC1BA
:10363000853239F493FD859193FF81917F01853225
:1036400021F4B60190E0D6D1E8CF912C212C312C79
:10365000FFE1F315D8F08B3279F038F4803279F04D
:103660008332A1F4232D20611DC08D3261F080339F
:1036700069F4232D216016C0832D8260382EE32D3E
:10368000E4603E2E2AC0F32DF8601DC037FC2DC02B
:1036900020ED280F2A3040F08E32B9F436FC75C187
:1036A000232D2064322E19C036FE06C08AE0989E73
:1036B000200D1124922E11C0EAE02E9E200D11241F
:1036C000222EF32DF0623F2E08C08C3621F4832D7C
:1036D0008068382E02C0883641F4F70193FD859149
:1036E00093FF81917F018111B3CF982F9F7D9554D6
:1036F000933028F40C5F1F4F9FE399830DC08336EE
:1037000031F0833771F0833509F055C020C0F801DE
:10371000808189830E5F1F4F88248394912C5301ED
:1037200012C02801F2E04F0E511CF801A080B180B8
:1037300036FE03C0692D70E002C06FEF7FEFC50158
:103740004ED14C018201F32DFF773F2E15C0280189
:1037500022E0420E511CF801A080B18036FE03C069
:10376000692D70E002C06FEF7FEFC5012DD14C01D4
:10377000F32DF0683F2E820133FC19C0822D90E0BA
:1037800088169906A0F4B60180E290E033D12A941D
:10379000F5CFF50137FC859137FE81915F01B601C8
:1037A00090E028D121102A9421E0821A91088114F6
:1037B000910479F7E1C0843611F0893639F5F801C2
:1037C00037FE07C060817181828193810C5F1F4F3A
:1037D00008C060817181072E000C880B990B0E5F69
:1037E0001F4FF32DFF763F2E97FF09C090958095D0
:1037F000709561957F4F8F4F9F4FF0683F2E2AE065
:1038000030E0A30133D1882E861844C0853731F4C7
:10381000232D2F7EB22E2AE030E025C0932D997FF4
:10382000B92E8F36C1F018F4883579F0AEC08037E4
:1038300019F0883721F0A9C0E92FE061BE2EB4FE4F
:103840000DC0FB2DF460BF2E09C034FE0AC0292F25
:103850002660B22E06C028E030E005C020E130E04E
:1038600002C020E132E0F801B7FE07C0608171813B
:10387000828193810C5F1F4F06C06081718180E05F
:1038800090E00E5F1F4FA301F1D0882E8618FB2D0C
:10389000FF773F2E36FE0DC0232D2E7FA22E8914DA
:1038A00058F434FE0BC032FC09C0832D8E7EA82E46
:1038B00005C0B82CA32C03C0B82C01C0B92CA4FEA1
:1038C0000FC0FE01E80DF11D8081803321F49A2D97
:1038D000997EA92E09C0A2FE06C0B394B39404C079
:1038E0008A2D867809F0B394A3FC10C0A0FE06C010
:1038F000B21480F4280C922C9B180DC0B21458F40A
:10390000B60180E290E076D0B394F8CFB21418F408
:103910002B1802C0982C212CA4FE0FC0B60180E306
:1039200090E068D0A2FE16C0A1FC03C088E790E03A
:1039300002C088E590E0B6010CC08A2D867851F06F
:10394000A1FE02C08BE201C080E2A7FC8DE2B601BD
:1039500090E050D0891430F4B60180E390E04AD072
:103960009A94F8CF8A94F301E80DF11D8081B60195
:1039700090E040D08110F6CF222009F44ECEB6015F
:1039800080E290E037D02A94F7CFF60186819781C4
:1039900002C08FEF9FEF2B960FB6F894DEBF0FBEDD
:1039A000CDBFDF91CF911F910F91FF90EF90DF90EE
:1039B000CF90BF90AF909F908F907F906F905F90CF
:1039C0004F903F902F900895FC01059061507040FA
:1039D0000110D8F7809590958E0F9F1F0895FC01D8
:1039E0006150704001900110D8F7809590958E0F2E
:1039F0009F1F08950F931F93CF93DF93FB012381A4
:103A000021FD03C08FEF9FEF2CC022FF16C046811F
:103A10005781248135814217530744F4A081B18135
:103A20009D012F5F3F4F318320838C932681378107
:103A30002F5F3F4F3783268314C08B01EC01FB01BE
:103A40000084F185E02D1995892BE1F6D8011696B1
:103A50008D919C911797019617969C938E9316972C
:103A6000CE01DF91CF911F910F910895FA01AA27FE
:103A7000283051F1203181F1E8946F936E7F6E5FB1
:103A80007F4F8F4F9F4FAF4FB1E03ED0B4E03CD05F
:103A9000670F781F891F9A1FA11D680F791F8A1F42
:103AA000911DA11D6A0F711D811D911DA11D20D0A9
:103AB00009F468943F912AE0269F11243019305D63
:103AC0003193DEF6CF010895462F4770405D419354
:103AD000B3E00FD0C9F7F6CF462F4F70405D4A33A1
:103AE00018F0495D31FD4052419302D0A9F7EACF69
:103AF000B4E0A6959795879577956795BA95C9F798
:103B000000976105710508959B01AC010A2E06948A
:103B10005795479537952795BA95C9F7620F731F43
:0C3B2000841F951FA01D0895F894FFCF8E
:103B2C000100003905800000401454004010500082
:103B3C000000004A0EB80DE20D960E130EF10D05A5
:103B4C000E00000000D109A509210A79099D0989F7
:103B5C00097A0900000000130AB80D210A200A6234
:103B6C000CFF09410A240A2569004550464C206483
:103B7C00726976657220666F7220436F6C6445645F
:103B8C006765206372796F2076312E300053757023
:103B9C00706C792070726573737572653A20006E63
:103BAC00616E00696E66006F766600205053492086
:103BBC002020202020004E6F206572726F720053FF
:103BCC0074617274696E672E2E2E00535953540013
:103BDC0053595354454D00455252004552524F5281
:103BEC00004552523F004552524F523F004E4558ED
:103BFC00543F002A49444E3F0056313F0056414C39
:103C0C005645313F0056323F0056414C5645323FE7
:103C1C000056333F0056414C5645333F0056343F17
:103C2C000056414C5645343F0056353F0056414CEA
:103C3C005645353F0056373F0056414C5645373FA9
:103C4C000056310056414C56453100563200564113
:103C5C004C5645320056330056414C5645330056AF
:103C6C00340056414C5645340056350056414C569E
:103C7C0045350056370056414C56453700524543A2
:103C8C003F00524543495243554C41544F523F001B
:103C9C0052454300524543495243554C41544F52AF
:103CAC0000434F4F4C3F00434F4F4C45523F004356
:103CBC004F4F4C00434F4F4C455200505245533FD1
:0C3CCC000050524553535552453F000034
:00000001FF
